{
	"data": {
		"bytecode": {
			"linkReferences": {},
			"object": "60806040526000805534801561001457600080fd5b50611bef806100246000396000f3fe608060405234801561001057600080fd5b50600436106100cf5760003560e01c8063c77a82531161008c578063d544d87511610066578063d544d87514610360578063d65ab5f21461038e578063e9c0932f14610398578063f25377cf146103de576100cf565b8063c77a8253146102d6578063c8d55e1614610304578063cb14da8d14610332576100cf565b8063117a5b90146100d45780633e141a5a1461012c5780635b7c942c1461017257806365595c2c146101a05780639122bbcf14610223578063b863bd3714610294575b600080fd5b610100600480360360208110156100ea57600080fd5b8101908080359060200190929190505050610448565b604051808481526020018315151515815260200182151515158152602001935050505060405180910390f35b6101586004803603602081101561014257600080fd5b810190808035906020019092919050505061048c565b604051808215151515815260200191505060405180910390f35b61019e6004803603602081101561018857600080fd5b81019080803590602001909291905050506106c0565b005b6101cc600480360360208110156101b657600080fd5b810190808035906020019092919050505061088b565b6040518080602001828103825283818151815260200191508051906020019060200280838360005b8381101561020f5780820151818401526020810190506101f4565b505050509050019250505060405180910390f35b610292600480360361022081101561023a57600080fd5b81019080803590602001909291908061020001906010806020026040519081016040528092919082601060200280828437600081840152601f19601f82011690508083019250505050505091929192905050506108f9565b005b6102c0600480360360208110156102aa57600080fd5b8101908080359060200190929190505050610923565b6040518082815260200191505060405180910390f35b610302600480360360208110156102ec57600080fd5b8101908080359060200190929190505050610940565b005b6103306004803603602081101561031a57600080fd5b8101908080359060200190929190505050610cb1565b005b61035e6004803603602081101561034857600080fd5b810190808035906020019092919050505061103c565b005b61038c6004803603602081101561037657600080fd5b81019080803590602001909291905050506113af565b005b610396611735565b005b6103c4600480360360208110156103ae57600080fd5b810190808035906020019092919050505061198e565b604051808215151515815260200191505060405180910390f35b61040a600480360360208110156103f457600080fd5b81019080803590602001909291905050506119e6565b6040518082601060200280838360005b8381101561043557808201518184015260208101905061041a565b5050505090500191505060405180910390f35b60016020528060005260406000206000915090508060000154908060010160009054906101000a900460ff16908060130160009054906101000a900460ff16905083565b6000610496611a79565b600160008481526020019081526020016000206002016010806020026040519081016040528092919082601080156104e3576020028201915b8154815260200190600101908083116104cf575b505050505090506000600160008581526020019081526020016000206012018054905014156106b557600080905060008090505b600c8110156105665782600482016010811061052f57fe5b602002015183826010811061054057fe5b6020020151141561055b5760019150600093505050506106bb565b806001019050610517565b506000600f90505b60038111156105be5782600482036010811061058657fe5b602002015183826010811061059757fe5b602002015114156105b25760019150600093505050506106bb565b8060019003905061056e565b5060008090505b600c81116106335760008090505b60038110156106275783600182840101601081106105ed57fe5b6020020151848284016010811061060057fe5b6020020151141561061c576001925060009450505050506106bb565b8060010190506105d3565b506004810190506105c5565b506000600390505b600f81116106a95760008090505b600381101561069d57836001828403036010811061066357fe5b6020020151848284036010811061067657fe5b60200201511415610692576001925060009450505050506106bb565b806001019050610649565b5060048101905061063b565b506001925050506106bb565b60009150505b919050565b60008090505b60108110156107465760006001600084815260200190815260200160002060020182601081106106f257fe5b0154141561073b57600160008381526020019081526020016000206012018190806001815401808255809150509060018203906000526020600020016000909192909190915055505b8060010190506106c6565b5060006001600083815260200190815260200160002060120180549050116107d6576040517f08c379a00000000000000000000000000000000000000000000000000000000081526004018080602001828103825260098152602001807f47414d45204f564552000000000000000000000000000000000000000000000081525060200191505060405180910390fd5b600060016107fc6001600085815260200190815260200160002060120180549050610923565b039050600060016000848152602001908152602001600020601201828154811061082257fe5b90600052602060002001549050600261083b6002610923565b0260016000858152602001908152602001600020600201826010811061085d57fe5b0181905550600060016000858152602001908152602001600020601201816108859190611a9c565b50505050565b6060600160008381526020019081526020016000206012018054806020026020016040519081016040528092919081815260200182805480156108ed57602002820191906000526020600020905b8154815260200190600101908083116108d9575b50505050509050919050565b806001600084815260200190815260200160002060020190601061091e929190611ac8565b505050565b6000600182600143034060001c8161093757fe5b06019050919050565b600015156001600083815260200190815260200160002060130160009054906101000a900460ff161515146109dd576040517f08c379a000000000000000000000000000000000000000000000000000000000815260040180806020018281038252600c8152602001807f47616d65206973204f766572000000000000000000000000000000000000000081525060200191505060405180910390fd5b6109e5611a79565b60016000838152602001908152602001600020600201601080602002604051908101604052809291908260108015610a32576020028201915b815481526020019060010190808311610a1e575b50505050509050600080905060008090505b6010811015610c15576000838260108110610a5b57fe5b60200201511115610c0a57600060048281610a7257fe5b0690505b81811015610c08576000848260108110610a8c57fe5b60200201511415610add57838260108110610aa357fe5b6020020151848260108110610ab457fe5b6020020181815250506000848360108110610acb57fe5b60200201818152505060019250610c08565b838260108110610ae957fe5b6020020151848260108110610afa57fe5b6020020151148015610b1d57506000848360108110610b1557fe5b602002015114155b15610bfd5760048183031480610b5457506008818303148015610b5357506000846004830160108110610b4c57fe5b6020020151145b5b80610b9f5750600c818303148015610b7f57506000846004830160108110610b7857fe5b6020020151145b8015610b9e57506000846008830160108110610b9757fe5b6020020151145b5b15610bfc57838160108110610bb057fe5b6020020151848360108110610bc157fe5b602002015101848260108110610bd357fe5b6020020181815250506000848360108110610bea57fe5b60200201818152505060019250610c08565b5b600481019050610a76565b505b806001019050610a44565b508160016000858152602001908152602001600020600201906010610c3b929190611ac8565b5060011515610c498461048c565b15151480610c63575060011515610c5f8461198e565b1515145b15610c9b57600180600085815260200190815260200160002060130160006101000a81548160ff021916908315150217905550610cac565b8015610cab57610caa836106c0565b5b5b505050565b600015156001600083815260200190815260200160002060130160009054906101000a900460ff16151514610d4e576040517f08c379a000000000000000000000000000000000000000000000000000000000815260040180806020018281038252600c8152602001807f47616d65206973204f766572000000000000000000000000000000000000000081525060200191505060405180910390fd5b610d56611a79565b60016000838152602001908152602001600020600201601080602002604051908101604052809291908260108015610da3576020028201915b815481526020019060010190808311610d8f575b505050505090506000600f90505b60008110158015610dc25750601081105b15610fa8576000828260108110610dd557fe5b60200201511115610f9c57600060048281610dec57fe5b06600c0190505b81811115610f9a576000838260108110610e0957fe5b6020020151148015610e2c57506000838360108110610e2457fe5b602002015114155b15610e7357828260108110610e3d57fe5b6020020151838260108110610e4e57fe5b6020020181815250506000838360108110610e6557fe5b602002018181525050610f9a565b828260108110610e7f57fe5b6020020151838260108110610e9057fe5b6020020151148015610eb357506000838360108110610eab57fe5b602002015114155b15610f8f5760048282031480610eea57506008828203148015610ee957506000836004830360108110610ee257fe5b6020020151145b5b80610f355750600c828203148015610f1557506000836004830360108110610f0e57fe5b6020020151145b8015610f3457506000836008830360108110610f2d57fe5b6020020151145b5b15610f8e57828160108110610f4657fe5b6020020151838360108110610f5757fe5b602002015101838260108110610f6957fe5b6020020181815250506000838360108110610f8057fe5b602002018181525050610f9a565b5b600481039050610df3565b505b80600190039050610db1565b508060016000848152602001908152602001600020600201906010610fce929190611ac8565b5060011515610fdc8361048c565b15151480610ff6575060011515610ff28361198e565b1515145b1561102e57600180600084815260200190815260200160002060130160006101000a81548160ff021916908315150217905550611038565b611037826106c0565b5b5050565b600015156001600083815260200190815260200160002060130160009054906101000a900460ff161515146110d9576040517f08c379a000000000000000000000000000000000000000000000000000000000815260040180806020018281038252600c8152602001807f47616d65206973204f766572000000000000000000000000000000000000000081525060200191505060405180910390fd5b6110e1611a79565b6001600083815260200190815260200160002060020160108060200260405190810160405280929190826010801561112e576020028201915b81548152602001906001019080831161111a575b50505050509050600080905060008090505b601081101561131357600083826010811061115757fe5b60200201511115611308576000600480838161116f57fe5b040290505b8181101561130657600084826010811061118a57fe5b602002015114156111db578382601081106111a157fe5b60200201518482601081106111b257fe5b60200201818152505060008483601081106111c957fe5b60200201818152505060009250611306565b8382601081106111e757fe5b60200201518482601081106111f857fe5b602002015114801561121b5750600084836010811061121357fe5b602002015114155b156112fb5760018183031480611252575060028183031480156112515750600084600183016010811061124a57fe5b6020020151145b5b8061129d5750600381830314801561127d5750600084600183016010811061127657fe5b6020020151145b801561129c5750600084600283016010811061129557fe5b6020020151145b5b156112fa578381601081106112ae57fe5b60200201518483601081106112bf57fe5b6020020151018482601081106112d157fe5b60200201818152505060008483601081106112e857fe5b60200201818152505060009250611306565b5b806001019050611174565b505b806001019050611140565b508160016000858152602001908152602001600020600201906010611339929190611ac8565b50600115156113478461048c565b1515148061136157506001151561135d8461198e565b1515145b1561139957600180600085815260200190815260200160002060130160006101000a81548160ff0219169083151502179055506113aa565b80156113a9576113a8836106c0565b5b5b505050565b600015156001600083815260200190815260200160002060130160009054906101000a900460ff1615151461144c576040517f08c379a000000000000000000000000000000000000000000000000000000000815260040180806020018281038252600c8152602001807f47616d65206973204f766572000000000000000000000000000000000000000081525060200191505060405180910390fd5b611454611a79565b600160008381526020019081526020016000206002016010806020026040519081016040528092919082601080156114a1576020028201915b81548152602001906001019080831161148d575b5050505050905060008090506000600f90505b600081101580156114c55750601081105b156116995760008382601081106114d857fe5b6020020151111561168d5760006003600483816114f157fe5b0683030190505b8181111561168b57600084826010811061150e57fe5b6020020151141561155f5783826010811061152557fe5b602002015184826010811061153657fe5b602002018181525050600084836010811061154d57fe5b6020020181815250506000925061168b565b83826010811061156b57fe5b602002015184826010811061157c57fe5b602002015114801561159f5750600084836010811061159757fe5b602002015114155b1561167f57600182820314806115d6575060028282031480156115d5575060008460018303601081106115ce57fe5b6020020151145b5b8061162157506003828203148015611601575060008460018303601081106115fa57fe5b6020020151145b80156116205750600084600283036010811061161957fe5b6020020151145b5b1561167e5783816010811061163257fe5b602002015184836010811061164357fe5b60200201510184826010811061165557fe5b602002018181525050600084836010811061166c57fe5b6020020181815250506000925061168b565b5b806001900390506114f8565b505b806001900390506114b4565b5081600160008581526020019081526020016000206002019060106116bf929190611ac8565b50600115156116cd8461048c565b151514806116e75750600115156116e38461198e565b1515145b1561171f57600180600085815260200190815260200160002060130160006101000a81548160ff021916908315150217905550611730565b801561172f5761172e836106c0565b5b5b505050565b600080815480929190600101919050555061174e611a79565b60008090505b601081101561177f57600082826010811061176b57fe5b602002018181525050806001019050611754565b5060028161178d600f610923565b6010811061179757fe5b60200201818152505060606040518060a0016040528060005481526020016001151581526020018381526020018281526020016000151581525060016000805481526020019081526020016000206000820151816000015560208201518160010160006101000a81548160ff021916908315150217905550604082015181600201906010611826929190611b08565b506060820151816012019080519060200190611843929190611b48565b5060808201518160130160006101000a81548160ff02191690831515021790555090505060008090505b60108110156118ef5760006001600080548152602001908152602001600020600201826010811061189a57fe5b015414156118e45760016000805481526020019081526020016000206012018190806001815401808255809150509060018203906000526020600020016000909192909190915055505b80600101905061186d565b50600260016000805481526020019081526020016000206002016001600080548152602001908152602001600020601201600161192c600e610923565b038154811061193757fe5b90600052602060002001546010811061194c57fe5b01819055507f0904cb5793a55505e1395a96a8c94a6470d36abd9b07d4c57479fec5679d08666000546040518082815260200191505060405180910390a15050565b600080600090505b60108110156119df576108006001600085815260200190815260200160002060020182601081106119c357fe5b0154106119d45760019150506119e1565b806001019050611996565b505b919050565b6119ee611a79565b6001600083815260200190815260200160002060010160009054906101000a900460ff1615611a705760016000838152602001908152602001600020600201601080602002604051908101604052809291908260108015611a64576020028201915b815481526020019060010190808311611a50575b50505050509050611a74565b8090505b919050565b604051806102000160405280601090602082028038833980820191505090505090565b815481835581811115611ac357818360005260206000209182019101611ac29190611b95565b5b505050565b8260108101928215611af7579160200282015b82811115611af6578251825591602001919060010190611adb565b5b509050611b049190611b95565b5090565b8260108101928215611b37579160200282015b82811115611b36578251825591602001919060010190611b1b565b5b509050611b449190611b95565b5090565b828054828255906000526020600020908101928215611b84579160200282015b82811115611b83578251825591602001919060010190611b68565b5b509050611b919190611b95565b5090565b611bb791905b80821115611bb3576000816000905550600101611b9b565b5090565b9056fea265627a7a72315820a047589fb0922c146d24085dd4e5315e865b76e652bed205a822c5071c5819a764736f6c63430005110032",
			"opcodes": "PUSH1 0x80 PUSH1 0x40 MSTORE PUSH1 0x0 DUP1 SSTORE CALLVALUE DUP1 ISZERO PUSH2 0x14 JUMPI PUSH1 0x0 DUP1 REVERT JUMPDEST POP PUSH2 0x1BEF DUP1 PUSH2 0x24 PUSH1 0x0 CODECOPY PUSH1 0x0 RETURN INVALID PUSH1 0x80 PUSH1 0x40 MSTORE CALLVALUE DUP1 ISZERO PUSH2 0x10 JUMPI PUSH1 0x0 DUP1 REVERT JUMPDEST POP PUSH1 0x4 CALLDATASIZE LT PUSH2 0xCF JUMPI PUSH1 0x0 CALLDATALOAD PUSH1 0xE0 SHR DUP1 PUSH4 0xC77A8253 GT PUSH2 0x8C JUMPI DUP1 PUSH4 0xD544D875 GT PUSH2 0x66 JUMPI DUP1 PUSH4 0xD544D875 EQ PUSH2 0x360 JUMPI DUP1 PUSH4 0xD65AB5F2 EQ PUSH2 0x38E JUMPI DUP1 PUSH4 0xE9C0932F EQ PUSH2 0x398 JUMPI DUP1 PUSH4 0xF25377CF EQ PUSH2 0x3DE JUMPI PUSH2 0xCF JUMP JUMPDEST DUP1 PUSH4 0xC77A8253 EQ PUSH2 0x2D6 JUMPI DUP1 PUSH4 0xC8D55E16 EQ PUSH2 0x304 JUMPI DUP1 PUSH4 0xCB14DA8D EQ PUSH2 0x332 JUMPI PUSH2 0xCF JUMP JUMPDEST DUP1 PUSH4 0x117A5B90 EQ PUSH2 0xD4 JUMPI DUP1 PUSH4 0x3E141A5A EQ PUSH2 0x12C JUMPI DUP1 PUSH4 0x5B7C942C EQ PUSH2 0x172 JUMPI DUP1 PUSH4 0x65595C2C EQ PUSH2 0x1A0 JUMPI DUP1 PUSH4 0x9122BBCF EQ PUSH2 0x223 JUMPI DUP1 PUSH4 0xB863BD37 EQ PUSH2 0x294 JUMPI JUMPDEST PUSH1 0x0 DUP1 REVERT JUMPDEST PUSH2 0x100 PUSH1 0x4 DUP1 CALLDATASIZE SUB PUSH1 0x20 DUP2 LT ISZERO PUSH2 0xEA JUMPI PUSH1 0x0 DUP1 REVERT JUMPDEST DUP2 ADD SWAP1 DUP1 DUP1 CALLDATALOAD SWAP1 PUSH1 0x20 ADD SWAP1 SWAP3 SWAP2 SWAP1 POP POP POP PUSH2 0x448 JUMP JUMPDEST PUSH1 0x40 MLOAD DUP1 DUP5 DUP2 MSTORE PUSH1 0x20 ADD DUP4 ISZERO ISZERO ISZERO ISZERO DUP2 MSTORE PUSH1 0x20 ADD DUP3 ISZERO ISZERO ISZERO ISZERO DUP2 MSTORE PUSH1 0x20 ADD SWAP4 POP POP POP POP PUSH1 0x40 MLOAD DUP1 SWAP2 SUB SWAP1 RETURN JUMPDEST PUSH2 0x158 PUSH1 0x4 DUP1 CALLDATASIZE SUB PUSH1 0x20 DUP2 LT ISZERO PUSH2 0x142 JUMPI PUSH1 0x0 DUP1 REVERT JUMPDEST DUP2 ADD SWAP1 DUP1 DUP1 CALLDATALOAD SWAP1 PUSH1 0x20 ADD SWAP1 SWAP3 SWAP2 SWAP1 POP POP POP PUSH2 0x48C JUMP JUMPDEST PUSH1 0x40 MLOAD DUP1 DUP3 ISZERO ISZERO ISZERO ISZERO DUP2 MSTORE PUSH1 0x20 ADD SWAP2 POP POP PUSH1 0x40 MLOAD DUP1 SWAP2 SUB SWAP1 RETURN JUMPDEST PUSH2 0x19E PUSH1 0x4 DUP1 CALLDATASIZE SUB PUSH1 0x20 DUP2 LT ISZERO PUSH2 0x188 JUMPI PUSH1 0x0 DUP1 REVERT JUMPDEST DUP2 ADD SWAP1 DUP1 DUP1 CALLDATALOAD SWAP1 PUSH1 0x20 ADD SWAP1 SWAP3 SWAP2 SWAP1 POP POP POP PUSH2 0x6C0 JUMP JUMPDEST STOP JUMPDEST PUSH2 0x1CC PUSH1 0x4 DUP1 CALLDATASIZE SUB PUSH1 0x20 DUP2 LT ISZERO PUSH2 0x1B6 JUMPI PUSH1 0x0 DUP1 REVERT JUMPDEST DUP2 ADD SWAP1 DUP1 DUP1 CALLDATALOAD SWAP1 PUSH1 0x20 ADD SWAP1 SWAP3 SWAP2 SWAP1 POP POP POP PUSH2 0x88B JUMP JUMPDEST PUSH1 0x40 MLOAD DUP1 DUP1 PUSH1 0x20 ADD DUP3 DUP2 SUB DUP3 MSTORE DUP4 DUP2 DUP2 MLOAD DUP2 MSTORE PUSH1 0x20 ADD SWAP2 POP DUP1 MLOAD SWAP1 PUSH1 0x20 ADD SWAP1 PUSH1 0x20 MUL DUP1 DUP4 DUP4 PUSH1 0x0 JUMPDEST DUP4 DUP2 LT ISZERO PUSH2 0x20F JUMPI DUP1 DUP3 ADD MLOAD DUP2 DUP5 ADD MSTORE PUSH1 0x20 DUP2 ADD SWAP1 POP PUSH2 0x1F4 JUMP JUMPDEST POP POP POP POP SWAP1 POP ADD SWAP3 POP POP POP PUSH1 0x40 MLOAD DUP1 SWAP2 SUB SWAP1 RETURN JUMPDEST PUSH2 0x292 PUSH1 0x4 DUP1 CALLDATASIZE SUB PUSH2 0x220 DUP2 LT ISZERO PUSH2 0x23A JUMPI PUSH1 0x0 DUP1 REVERT JUMPDEST DUP2 ADD SWAP1 DUP1 DUP1 CALLDATALOAD SWAP1 PUSH1 0x20 ADD SWAP1 SWAP3 SWAP2 SWAP1 DUP1 PUSH2 0x200 ADD SWAP1 PUSH1 0x10 DUP1 PUSH1 0x20 MUL PUSH1 0x40 MLOAD SWAP1 DUP2 ADD PUSH1 0x40 MSTORE DUP1 SWAP3 SWAP2 SWAP1 DUP3 PUSH1 0x10 PUSH1 0x20 MUL DUP1 DUP3 DUP5 CALLDATACOPY PUSH1 0x0 DUP2 DUP5 ADD MSTORE PUSH1 0x1F NOT PUSH1 0x1F DUP3 ADD AND SWAP1 POP DUP1 DUP4 ADD SWAP3 POP POP POP POP POP POP SWAP2 SWAP3 SWAP2 SWAP3 SWAP1 POP POP POP PUSH2 0x8F9 JUMP JUMPDEST STOP JUMPDEST PUSH2 0x2C0 PUSH1 0x4 DUP1 CALLDATASIZE SUB PUSH1 0x20 DUP2 LT ISZERO PUSH2 0x2AA JUMPI PUSH1 0x0 DUP1 REVERT JUMPDEST DUP2 ADD SWAP1 DUP1 DUP1 CALLDATALOAD SWAP1 PUSH1 0x20 ADD SWAP1 SWAP3 SWAP2 SWAP1 POP POP POP PUSH2 0x923 JUMP JUMPDEST PUSH1 0x40 MLOAD DUP1 DUP3 DUP2 MSTORE PUSH1 0x20 ADD SWAP2 POP POP PUSH1 0x40 MLOAD DUP1 SWAP2 SUB SWAP1 RETURN JUMPDEST PUSH2 0x302 PUSH1 0x4 DUP1 CALLDATASIZE SUB PUSH1 0x20 DUP2 LT ISZERO PUSH2 0x2EC JUMPI PUSH1 0x0 DUP1 REVERT JUMPDEST DUP2 ADD SWAP1 DUP1 DUP1 CALLDATALOAD SWAP1 PUSH1 0x20 ADD SWAP1 SWAP3 SWAP2 SWAP1 POP POP POP PUSH2 0x940 JUMP JUMPDEST STOP JUMPDEST PUSH2 0x330 PUSH1 0x4 DUP1 CALLDATASIZE SUB PUSH1 0x20 DUP2 LT ISZERO PUSH2 0x31A JUMPI PUSH1 0x0 DUP1 REVERT JUMPDEST DUP2 ADD SWAP1 DUP1 DUP1 CALLDATALOAD SWAP1 PUSH1 0x20 ADD SWAP1 SWAP3 SWAP2 SWAP1 POP POP POP PUSH2 0xCB1 JUMP JUMPDEST STOP JUMPDEST PUSH2 0x35E PUSH1 0x4 DUP1 CALLDATASIZE SUB PUSH1 0x20 DUP2 LT ISZERO PUSH2 0x348 JUMPI PUSH1 0x0 DUP1 REVERT JUMPDEST DUP2 ADD SWAP1 DUP1 DUP1 CALLDATALOAD SWAP1 PUSH1 0x20 ADD SWAP1 SWAP3 SWAP2 SWAP1 POP POP POP PUSH2 0x103C JUMP JUMPDEST STOP JUMPDEST PUSH2 0x38C PUSH1 0x4 DUP1 CALLDATASIZE SUB PUSH1 0x20 DUP2 LT ISZERO PUSH2 0x376 JUMPI PUSH1 0x0 DUP1 REVERT JUMPDEST DUP2 ADD SWAP1 DUP1 DUP1 CALLDATALOAD SWAP1 PUSH1 0x20 ADD SWAP1 SWAP3 SWAP2 SWAP1 POP POP POP PUSH2 0x13AF JUMP JUMPDEST STOP JUMPDEST PUSH2 0x396 PUSH2 0x1735 JUMP JUMPDEST STOP JUMPDEST PUSH2 0x3C4 PUSH1 0x4 DUP1 CALLDATASIZE SUB PUSH1 0x20 DUP2 LT ISZERO PUSH2 0x3AE JUMPI PUSH1 0x0 DUP1 REVERT JUMPDEST DUP2 ADD SWAP1 DUP1 DUP1 CALLDATALOAD SWAP1 PUSH1 0x20 ADD SWAP1 SWAP3 SWAP2 SWAP1 POP POP POP PUSH2 0x198E JUMP JUMPDEST PUSH1 0x40 MLOAD DUP1 DUP3 ISZERO ISZERO ISZERO ISZERO DUP2 MSTORE PUSH1 0x20 ADD SWAP2 POP POP PUSH1 0x40 MLOAD DUP1 SWAP2 SUB SWAP1 RETURN JUMPDEST PUSH2 0x40A PUSH1 0x4 DUP1 CALLDATASIZE SUB PUSH1 0x20 DUP2 LT ISZERO PUSH2 0x3F4 JUMPI PUSH1 0x0 DUP1 REVERT JUMPDEST DUP2 ADD SWAP1 DUP1 DUP1 CALLDATALOAD SWAP1 PUSH1 0x20 ADD SWAP1 SWAP3 SWAP2 SWAP1 POP POP POP PUSH2 0x19E6 JUMP JUMPDEST PUSH1 0x40 MLOAD DUP1 DUP3 PUSH1 0x10 PUSH1 0x20 MUL DUP1 DUP4 DUP4 PUSH1 0x0 JUMPDEST DUP4 DUP2 LT ISZERO PUSH2 0x435 JUMPI DUP1 DUP3 ADD MLOAD DUP2 DUP5 ADD MSTORE PUSH1 0x20 DUP2 ADD SWAP1 POP PUSH2 0x41A JUMP JUMPDEST POP POP POP POP SWAP1 POP ADD SWAP2 POP POP PUSH1 0x40 MLOAD DUP1 SWAP2 SUB SWAP1 RETURN JUMPDEST PUSH1 0x1 PUSH1 0x20 MSTORE DUP1 PUSH1 0x0 MSTORE PUSH1 0x40 PUSH1 0x0 KECCAK256 PUSH1 0x0 SWAP2 POP SWAP1 POP DUP1 PUSH1 0x0 ADD SLOAD SWAP1 DUP1 PUSH1 0x1 ADD PUSH1 0x0 SWAP1 SLOAD SWAP1 PUSH2 0x100 EXP SWAP1 DIV PUSH1 0xFF AND SWAP1 DUP1 PUSH1 0x13 ADD PUSH1 0x0 SWAP1 SLOAD SWAP1 PUSH2 0x100 EXP SWAP1 DIV PUSH1 0xFF AND SWAP1 POP DUP4 JUMP JUMPDEST PUSH1 0x0 PUSH2 0x496 PUSH2 0x1A79 JUMP JUMPDEST PUSH1 0x1 PUSH1 0x0 DUP5 DUP2 MSTORE PUSH1 0x20 ADD SWAP1 DUP2 MSTORE PUSH1 0x20 ADD PUSH1 0x0 KECCAK256 PUSH1 0x2 ADD PUSH1 0x10 DUP1 PUSH1 0x20 MUL PUSH1 0x40 MLOAD SWAP1 DUP2 ADD PUSH1 0x40 MSTORE DUP1 SWAP3 SWAP2 SWAP1 DUP3 PUSH1 0x10 DUP1 ISZERO PUSH2 0x4E3 JUMPI PUSH1 0x20 MUL DUP3 ADD SWAP2 JUMPDEST DUP2 SLOAD DUP2 MSTORE PUSH1 0x20 ADD SWAP1 PUSH1 0x1 ADD SWAP1 DUP1 DUP4 GT PUSH2 0x4CF JUMPI JUMPDEST POP POP POP POP POP SWAP1 POP PUSH1 0x0 PUSH1 0x1 PUSH1 0x0 DUP6 DUP2 MSTORE PUSH1 0x20 ADD SWAP1 DUP2 MSTORE PUSH1 0x20 ADD PUSH1 0x0 KECCAK256 PUSH1 0x12 ADD DUP1 SLOAD SWAP1 POP EQ ISZERO PUSH2 0x6B5 JUMPI PUSH1 0x0 DUP1 SWAP1 POP PUSH1 0x0 DUP1 SWAP1 POP JUMPDEST PUSH1 0xC DUP2 LT ISZERO PUSH2 0x566 JUMPI DUP3 PUSH1 0x4 DUP3 ADD PUSH1 0x10 DUP2 LT PUSH2 0x52F JUMPI INVALID JUMPDEST PUSH1 0x20 MUL ADD MLOAD DUP4 DUP3 PUSH1 0x10 DUP2 LT PUSH2 0x540 JUMPI INVALID JUMPDEST PUSH1 0x20 MUL ADD MLOAD EQ ISZERO PUSH2 0x55B JUMPI PUSH1 0x1 SWAP2 POP PUSH1 0x0 SWAP4 POP POP POP POP PUSH2 0x6BB JUMP JUMPDEST DUP1 PUSH1 0x1 ADD SWAP1 POP PUSH2 0x517 JUMP JUMPDEST POP PUSH1 0x0 PUSH1 0xF SWAP1 POP JUMPDEST PUSH1 0x3 DUP2 GT ISZERO PUSH2 0x5BE JUMPI DUP3 PUSH1 0x4 DUP3 SUB PUSH1 0x10 DUP2 LT PUSH2 0x586 JUMPI INVALID JUMPDEST PUSH1 0x20 MUL ADD MLOAD DUP4 DUP3 PUSH1 0x10 DUP2 LT PUSH2 0x597 JUMPI INVALID JUMPDEST PUSH1 0x20 MUL ADD MLOAD EQ ISZERO PUSH2 0x5B2 JUMPI PUSH1 0x1 SWAP2 POP PUSH1 0x0 SWAP4 POP POP POP POP PUSH2 0x6BB JUMP JUMPDEST DUP1 PUSH1 0x1 SWAP1 SUB SWAP1 POP PUSH2 0x56E JUMP JUMPDEST POP PUSH1 0x0 DUP1 SWAP1 POP JUMPDEST PUSH1 0xC DUP2 GT PUSH2 0x633 JUMPI PUSH1 0x0 DUP1 SWAP1 POP JUMPDEST PUSH1 0x3 DUP2 LT ISZERO PUSH2 0x627 JUMPI DUP4 PUSH1 0x1 DUP3 DUP5 ADD ADD PUSH1 0x10 DUP2 LT PUSH2 0x5ED JUMPI INVALID JUMPDEST PUSH1 0x20 MUL ADD MLOAD DUP5 DUP3 DUP5 ADD PUSH1 0x10 DUP2 LT PUSH2 0x600 JUMPI INVALID JUMPDEST PUSH1 0x20 MUL ADD MLOAD EQ ISZERO PUSH2 0x61C JUMPI PUSH1 0x1 SWAP3 POP PUSH1 0x0 SWAP5 POP POP POP POP POP PUSH2 0x6BB JUMP JUMPDEST DUP1 PUSH1 0x1 ADD SWAP1 POP PUSH2 0x5D3 JUMP JUMPDEST POP PUSH1 0x4 DUP2 ADD SWAP1 POP PUSH2 0x5C5 JUMP JUMPDEST POP PUSH1 0x0 PUSH1 0x3 SWAP1 POP JUMPDEST PUSH1 0xF DUP2 GT PUSH2 0x6A9 JUMPI PUSH1 0x0 DUP1 SWAP1 POP JUMPDEST PUSH1 0x3 DUP2 LT ISZERO PUSH2 0x69D JUMPI DUP4 PUSH1 0x1 DUP3 DUP5 SUB SUB PUSH1 0x10 DUP2 LT PUSH2 0x663 JUMPI INVALID JUMPDEST PUSH1 0x20 MUL ADD MLOAD DUP5 DUP3 DUP5 SUB PUSH1 0x10 DUP2 LT PUSH2 0x676 JUMPI INVALID JUMPDEST PUSH1 0x20 MUL ADD MLOAD EQ ISZERO PUSH2 0x692 JUMPI PUSH1 0x1 SWAP3 POP PUSH1 0x0 SWAP5 POP POP POP POP POP PUSH2 0x6BB JUMP JUMPDEST DUP1 PUSH1 0x1 ADD SWAP1 POP PUSH2 0x649 JUMP JUMPDEST POP PUSH1 0x4 DUP2 ADD SWAP1 POP PUSH2 0x63B JUMP JUMPDEST POP PUSH1 0x1 SWAP3 POP POP POP PUSH2 0x6BB JUMP JUMPDEST PUSH1 0x0 SWAP2 POP POP JUMPDEST SWAP2 SWAP1 POP JUMP JUMPDEST PUSH1 0x0 DUP1 SWAP1 POP JUMPDEST PUSH1 0x10 DUP2 LT ISZERO PUSH2 0x746 JUMPI PUSH1 0x0 PUSH1 0x1 PUSH1 0x0 DUP5 DUP2 MSTORE PUSH1 0x20 ADD SWAP1 DUP2 MSTORE PUSH1 0x20 ADD PUSH1 0x0 KECCAK256 PUSH1 0x2 ADD DUP3 PUSH1 0x10 DUP2 LT PUSH2 0x6F2 JUMPI INVALID JUMPDEST ADD SLOAD EQ ISZERO PUSH2 0x73B JUMPI PUSH1 0x1 PUSH1 0x0 DUP4 DUP2 MSTORE PUSH1 0x20 ADD SWAP1 DUP2 MSTORE PUSH1 0x20 ADD PUSH1 0x0 KECCAK256 PUSH1 0x12 ADD DUP2 SWAP1 DUP1 PUSH1 0x1 DUP2 SLOAD ADD DUP1 DUP3 SSTORE DUP1 SWAP2 POP POP SWAP1 PUSH1 0x1 DUP3 SUB SWAP1 PUSH1 0x0 MSTORE PUSH1 0x20 PUSH1 0x0 KECCAK256 ADD PUSH1 0x0 SWAP1 SWAP2 SWAP3 SWAP1 SWAP2 SWAP1 SWAP2 POP SSTORE POP JUMPDEST DUP1 PUSH1 0x1 ADD SWAP1 POP PUSH2 0x6C6 JUMP JUMPDEST POP PUSH1 0x0 PUSH1 0x1 PUSH1 0x0 DUP4 DUP2 MSTORE PUSH1 0x20 ADD SWAP1 DUP2 MSTORE PUSH1 0x20 ADD PUSH1 0x0 KECCAK256 PUSH1 0x12 ADD DUP1 SLOAD SWAP1 POP GT PUSH2 0x7D6 JUMPI PUSH1 0x40 MLOAD PUSH32 0x8C379A000000000000000000000000000000000000000000000000000000000 DUP2 MSTORE PUSH1 0x4 ADD DUP1 DUP1 PUSH1 0x20 ADD DUP3 DUP2 SUB DUP3 MSTORE PUSH1 0x9 DUP2 MSTORE PUSH1 0x20 ADD DUP1 PUSH32 0x47414D45204F5645520000000000000000000000000000000000000000000000 DUP2 MSTORE POP PUSH1 0x20 ADD SWAP2 POP POP PUSH1 0x40 MLOAD DUP1 SWAP2 SUB SWAP1 REVERT JUMPDEST PUSH1 0x0 PUSH1 0x1 PUSH2 0x7FC PUSH1 0x1 PUSH1 0x0 DUP6 DUP2 MSTORE PUSH1 0x20 ADD SWAP1 DUP2 MSTORE PUSH1 0x20 ADD PUSH1 0x0 KECCAK256 PUSH1 0x12 ADD DUP1 SLOAD SWAP1 POP PUSH2 0x923 JUMP JUMPDEST SUB SWAP1 POP PUSH1 0x0 PUSH1 0x1 PUSH1 0x0 DUP5 DUP2 MSTORE PUSH1 0x20 ADD SWAP1 DUP2 MSTORE PUSH1 0x20 ADD PUSH1 0x0 KECCAK256 PUSH1 0x12 ADD DUP3 DUP2 SLOAD DUP2 LT PUSH2 0x822 JUMPI INVALID JUMPDEST SWAP1 PUSH1 0x0 MSTORE PUSH1 0x20 PUSH1 0x0 KECCAK256 ADD SLOAD SWAP1 POP PUSH1 0x2 PUSH2 0x83B PUSH1 0x2 PUSH2 0x923 JUMP JUMPDEST MUL PUSH1 0x1 PUSH1 0x0 DUP6 DUP2 MSTORE PUSH1 0x20 ADD SWAP1 DUP2 MSTORE PUSH1 0x20 ADD PUSH1 0x0 KECCAK256 PUSH1 0x2 ADD DUP3 PUSH1 0x10 DUP2 LT PUSH2 0x85D JUMPI INVALID JUMPDEST ADD DUP2 SWAP1 SSTORE POP PUSH1 0x0 PUSH1 0x1 PUSH1 0x0 DUP6 DUP2 MSTORE PUSH1 0x20 ADD SWAP1 DUP2 MSTORE PUSH1 0x20 ADD PUSH1 0x0 KECCAK256 PUSH1 0x12 ADD DUP2 PUSH2 0x885 SWAP2 SWAP1 PUSH2 0x1A9C JUMP JUMPDEST POP POP POP POP JUMP JUMPDEST PUSH1 0x60 PUSH1 0x1 PUSH1 0x0 DUP4 DUP2 MSTORE PUSH1 0x20 ADD SWAP1 DUP2 MSTORE PUSH1 0x20 ADD PUSH1 0x0 KECCAK256 PUSH1 0x12 ADD DUP1 SLOAD DUP1 PUSH1 0x20 MUL PUSH1 0x20 ADD PUSH1 0x40 MLOAD SWAP1 DUP2 ADD PUSH1 0x40 MSTORE DUP1 SWAP3 SWAP2 SWAP1 DUP2 DUP2 MSTORE PUSH1 0x20 ADD DUP3 DUP1 SLOAD DUP1 ISZERO PUSH2 0x8ED JUMPI PUSH1 0x20 MUL DUP3 ADD SWAP2 SWAP1 PUSH1 0x0 MSTORE PUSH1 0x20 PUSH1 0x0 KECCAK256 SWAP1 JUMPDEST DUP2 SLOAD DUP2 MSTORE PUSH1 0x20 ADD SWAP1 PUSH1 0x1 ADD SWAP1 DUP1 DUP4 GT PUSH2 0x8D9 JUMPI JUMPDEST POP POP POP POP POP SWAP1 POP SWAP2 SWAP1 POP JUMP JUMPDEST DUP1 PUSH1 0x1 PUSH1 0x0 DUP5 DUP2 MSTORE PUSH1 0x20 ADD SWAP1 DUP2 MSTORE PUSH1 0x20 ADD PUSH1 0x0 KECCAK256 PUSH1 0x2 ADD SWAP1 PUSH1 0x10 PUSH2 0x91E SWAP3 SWAP2 SWAP1 PUSH2 0x1AC8 JUMP JUMPDEST POP POP POP JUMP JUMPDEST PUSH1 0x0 PUSH1 0x1 DUP3 PUSH1 0x1 NUMBER SUB BLOCKHASH PUSH1 0x0 SHR DUP2 PUSH2 0x937 JUMPI INVALID JUMPDEST MOD ADD SWAP1 POP SWAP2 SWAP1 POP JUMP JUMPDEST PUSH1 0x0 ISZERO ISZERO PUSH1 0x1 PUSH1 0x0 DUP4 DUP2 MSTORE PUSH1 0x20 ADD SWAP1 DUP2 MSTORE PUSH1 0x20 ADD PUSH1 0x0 KECCAK256 PUSH1 0x13 ADD PUSH1 0x0 SWAP1 SLOAD SWAP1 PUSH2 0x100 EXP SWAP1 DIV PUSH1 0xFF AND ISZERO ISZERO EQ PUSH2 0x9DD JUMPI PUSH1 0x40 MLOAD PUSH32 0x8C379A000000000000000000000000000000000000000000000000000000000 DUP2 MSTORE PUSH1 0x4 ADD DUP1 DUP1 PUSH1 0x20 ADD DUP3 DUP2 SUB DUP3 MSTORE PUSH1 0xC DUP2 MSTORE PUSH1 0x20 ADD DUP1 PUSH32 0x47616D65206973204F7665720000000000000000000000000000000000000000 DUP2 MSTORE POP PUSH1 0x20 ADD SWAP2 POP POP PUSH1 0x40 MLOAD DUP1 SWAP2 SUB SWAP1 REVERT JUMPDEST PUSH2 0x9E5 PUSH2 0x1A79 JUMP JUMPDEST PUSH1 0x1 PUSH1 0x0 DUP4 DUP2 MSTORE PUSH1 0x20 ADD SWAP1 DUP2 MSTORE PUSH1 0x20 ADD PUSH1 0x0 KECCAK256 PUSH1 0x2 ADD PUSH1 0x10 DUP1 PUSH1 0x20 MUL PUSH1 0x40 MLOAD SWAP1 DUP2 ADD PUSH1 0x40 MSTORE DUP1 SWAP3 SWAP2 SWAP1 DUP3 PUSH1 0x10 DUP1 ISZERO PUSH2 0xA32 JUMPI PUSH1 0x20 MUL DUP3 ADD SWAP2 JUMPDEST DUP2 SLOAD DUP2 MSTORE PUSH1 0x20 ADD SWAP1 PUSH1 0x1 ADD SWAP1 DUP1 DUP4 GT PUSH2 0xA1E JUMPI JUMPDEST POP POP POP POP POP SWAP1 POP PUSH1 0x0 DUP1 SWAP1 POP PUSH1 0x0 DUP1 SWAP1 POP JUMPDEST PUSH1 0x10 DUP2 LT ISZERO PUSH2 0xC15 JUMPI PUSH1 0x0 DUP4 DUP3 PUSH1 0x10 DUP2 LT PUSH2 0xA5B JUMPI INVALID JUMPDEST PUSH1 0x20 MUL ADD MLOAD GT ISZERO PUSH2 0xC0A JUMPI PUSH1 0x0 PUSH1 0x4 DUP3 DUP2 PUSH2 0xA72 JUMPI INVALID JUMPDEST MOD SWAP1 POP JUMPDEST DUP2 DUP2 LT ISZERO PUSH2 0xC08 JUMPI PUSH1 0x0 DUP5 DUP3 PUSH1 0x10 DUP2 LT PUSH2 0xA8C JUMPI INVALID JUMPDEST PUSH1 0x20 MUL ADD MLOAD EQ ISZERO PUSH2 0xADD JUMPI DUP4 DUP3 PUSH1 0x10 DUP2 LT PUSH2 0xAA3 JUMPI INVALID JUMPDEST PUSH1 0x20 MUL ADD MLOAD DUP5 DUP3 PUSH1 0x10 DUP2 LT PUSH2 0xAB4 JUMPI INVALID JUMPDEST PUSH1 0x20 MUL ADD DUP2 DUP2 MSTORE POP POP PUSH1 0x0 DUP5 DUP4 PUSH1 0x10 DUP2 LT PUSH2 0xACB JUMPI INVALID JUMPDEST PUSH1 0x20 MUL ADD DUP2 DUP2 MSTORE POP POP PUSH1 0x1 SWAP3 POP PUSH2 0xC08 JUMP JUMPDEST DUP4 DUP3 PUSH1 0x10 DUP2 LT PUSH2 0xAE9 JUMPI INVALID JUMPDEST PUSH1 0x20 MUL ADD MLOAD DUP5 DUP3 PUSH1 0x10 DUP2 LT PUSH2 0xAFA JUMPI INVALID JUMPDEST PUSH1 0x20 MUL ADD MLOAD EQ DUP1 ISZERO PUSH2 0xB1D JUMPI POP PUSH1 0x0 DUP5 DUP4 PUSH1 0x10 DUP2 LT PUSH2 0xB15 JUMPI INVALID JUMPDEST PUSH1 0x20 MUL ADD MLOAD EQ ISZERO JUMPDEST ISZERO PUSH2 0xBFD JUMPI PUSH1 0x4 DUP2 DUP4 SUB EQ DUP1 PUSH2 0xB54 JUMPI POP PUSH1 0x8 DUP2 DUP4 SUB EQ DUP1 ISZERO PUSH2 0xB53 JUMPI POP PUSH1 0x0 DUP5 PUSH1 0x4 DUP4 ADD PUSH1 0x10 DUP2 LT PUSH2 0xB4C JUMPI INVALID JUMPDEST PUSH1 0x20 MUL ADD MLOAD EQ JUMPDEST JUMPDEST DUP1 PUSH2 0xB9F JUMPI POP PUSH1 0xC DUP2 DUP4 SUB EQ DUP1 ISZERO PUSH2 0xB7F JUMPI POP PUSH1 0x0 DUP5 PUSH1 0x4 DUP4 ADD PUSH1 0x10 DUP2 LT PUSH2 0xB78 JUMPI INVALID JUMPDEST PUSH1 0x20 MUL ADD MLOAD EQ JUMPDEST DUP1 ISZERO PUSH2 0xB9E JUMPI POP PUSH1 0x0 DUP5 PUSH1 0x8 DUP4 ADD PUSH1 0x10 DUP2 LT PUSH2 0xB97 JUMPI INVALID JUMPDEST PUSH1 0x20 MUL ADD MLOAD EQ JUMPDEST JUMPDEST ISZERO PUSH2 0xBFC JUMPI DUP4 DUP2 PUSH1 0x10 DUP2 LT PUSH2 0xBB0 JUMPI INVALID JUMPDEST PUSH1 0x20 MUL ADD MLOAD DUP5 DUP4 PUSH1 0x10 DUP2 LT PUSH2 0xBC1 JUMPI INVALID JUMPDEST PUSH1 0x20 MUL ADD MLOAD ADD DUP5 DUP3 PUSH1 0x10 DUP2 LT PUSH2 0xBD3 JUMPI INVALID JUMPDEST PUSH1 0x20 MUL ADD DUP2 DUP2 MSTORE POP POP PUSH1 0x0 DUP5 DUP4 PUSH1 0x10 DUP2 LT PUSH2 0xBEA JUMPI INVALID JUMPDEST PUSH1 0x20 MUL ADD DUP2 DUP2 MSTORE POP POP PUSH1 0x1 SWAP3 POP PUSH2 0xC08 JUMP JUMPDEST JUMPDEST PUSH1 0x4 DUP2 ADD SWAP1 POP PUSH2 0xA76 JUMP JUMPDEST POP JUMPDEST DUP1 PUSH1 0x1 ADD SWAP1 POP PUSH2 0xA44 JUMP JUMPDEST POP DUP2 PUSH1 0x1 PUSH1 0x0 DUP6 DUP2 MSTORE PUSH1 0x20 ADD SWAP1 DUP2 MSTORE PUSH1 0x20 ADD PUSH1 0x0 KECCAK256 PUSH1 0x2 ADD SWAP1 PUSH1 0x10 PUSH2 0xC3B SWAP3 SWAP2 SWAP1 PUSH2 0x1AC8 JUMP JUMPDEST POP PUSH1 0x1 ISZERO ISZERO PUSH2 0xC49 DUP5 PUSH2 0x48C JUMP JUMPDEST ISZERO ISZERO EQ DUP1 PUSH2 0xC63 JUMPI POP PUSH1 0x1 ISZERO ISZERO PUSH2 0xC5F DUP5 PUSH2 0x198E JUMP JUMPDEST ISZERO ISZERO EQ JUMPDEST ISZERO PUSH2 0xC9B JUMPI PUSH1 0x1 DUP1 PUSH1 0x0 DUP6 DUP2 MSTORE PUSH1 0x20 ADD SWAP1 DUP2 MSTORE PUSH1 0x20 ADD PUSH1 0x0 KECCAK256 PUSH1 0x13 ADD PUSH1 0x0 PUSH2 0x100 EXP DUP2 SLOAD DUP2 PUSH1 0xFF MUL NOT AND SWAP1 DUP4 ISZERO ISZERO MUL OR SWAP1 SSTORE POP PUSH2 0xCAC JUMP JUMPDEST DUP1 ISZERO PUSH2 0xCAB JUMPI PUSH2 0xCAA DUP4 PUSH2 0x6C0 JUMP JUMPDEST JUMPDEST JUMPDEST POP POP POP JUMP JUMPDEST PUSH1 0x0 ISZERO ISZERO PUSH1 0x1 PUSH1 0x0 DUP4 DUP2 MSTORE PUSH1 0x20 ADD SWAP1 DUP2 MSTORE PUSH1 0x20 ADD PUSH1 0x0 KECCAK256 PUSH1 0x13 ADD PUSH1 0x0 SWAP1 SLOAD SWAP1 PUSH2 0x100 EXP SWAP1 DIV PUSH1 0xFF AND ISZERO ISZERO EQ PUSH2 0xD4E JUMPI PUSH1 0x40 MLOAD PUSH32 0x8C379A000000000000000000000000000000000000000000000000000000000 DUP2 MSTORE PUSH1 0x4 ADD DUP1 DUP1 PUSH1 0x20 ADD DUP3 DUP2 SUB DUP3 MSTORE PUSH1 0xC DUP2 MSTORE PUSH1 0x20 ADD DUP1 PUSH32 0x47616D65206973204F7665720000000000000000000000000000000000000000 DUP2 MSTORE POP PUSH1 0x20 ADD SWAP2 POP POP PUSH1 0x40 MLOAD DUP1 SWAP2 SUB SWAP1 REVERT JUMPDEST PUSH2 0xD56 PUSH2 0x1A79 JUMP JUMPDEST PUSH1 0x1 PUSH1 0x0 DUP4 DUP2 MSTORE PUSH1 0x20 ADD SWAP1 DUP2 MSTORE PUSH1 0x20 ADD PUSH1 0x0 KECCAK256 PUSH1 0x2 ADD PUSH1 0x10 DUP1 PUSH1 0x20 MUL PUSH1 0x40 MLOAD SWAP1 DUP2 ADD PUSH1 0x40 MSTORE DUP1 SWAP3 SWAP2 SWAP1 DUP3 PUSH1 0x10 DUP1 ISZERO PUSH2 0xDA3 JUMPI PUSH1 0x20 MUL DUP3 ADD SWAP2 JUMPDEST DUP2 SLOAD DUP2 MSTORE PUSH1 0x20 ADD SWAP1 PUSH1 0x1 ADD SWAP1 DUP1 DUP4 GT PUSH2 0xD8F JUMPI JUMPDEST POP POP POP POP POP SWAP1 POP PUSH1 0x0 PUSH1 0xF SWAP1 POP JUMPDEST PUSH1 0x0 DUP2 LT ISZERO DUP1 ISZERO PUSH2 0xDC2 JUMPI POP PUSH1 0x10 DUP2 LT JUMPDEST ISZERO PUSH2 0xFA8 JUMPI PUSH1 0x0 DUP3 DUP3 PUSH1 0x10 DUP2 LT PUSH2 0xDD5 JUMPI INVALID JUMPDEST PUSH1 0x20 MUL ADD MLOAD GT ISZERO PUSH2 0xF9C JUMPI PUSH1 0x0 PUSH1 0x4 DUP3 DUP2 PUSH2 0xDEC JUMPI INVALID JUMPDEST MOD PUSH1 0xC ADD SWAP1 POP JUMPDEST DUP2 DUP2 GT ISZERO PUSH2 0xF9A JUMPI PUSH1 0x0 DUP4 DUP3 PUSH1 0x10 DUP2 LT PUSH2 0xE09 JUMPI INVALID JUMPDEST PUSH1 0x20 MUL ADD MLOAD EQ DUP1 ISZERO PUSH2 0xE2C JUMPI POP PUSH1 0x0 DUP4 DUP4 PUSH1 0x10 DUP2 LT PUSH2 0xE24 JUMPI INVALID JUMPDEST PUSH1 0x20 MUL ADD MLOAD EQ ISZERO JUMPDEST ISZERO PUSH2 0xE73 JUMPI DUP3 DUP3 PUSH1 0x10 DUP2 LT PUSH2 0xE3D JUMPI INVALID JUMPDEST PUSH1 0x20 MUL ADD MLOAD DUP4 DUP3 PUSH1 0x10 DUP2 LT PUSH2 0xE4E JUMPI INVALID JUMPDEST PUSH1 0x20 MUL ADD DUP2 DUP2 MSTORE POP POP PUSH1 0x0 DUP4 DUP4 PUSH1 0x10 DUP2 LT PUSH2 0xE65 JUMPI INVALID JUMPDEST PUSH1 0x20 MUL ADD DUP2 DUP2 MSTORE POP POP PUSH2 0xF9A JUMP JUMPDEST DUP3 DUP3 PUSH1 0x10 DUP2 LT PUSH2 0xE7F JUMPI INVALID JUMPDEST PUSH1 0x20 MUL ADD MLOAD DUP4 DUP3 PUSH1 0x10 DUP2 LT PUSH2 0xE90 JUMPI INVALID JUMPDEST PUSH1 0x20 MUL ADD MLOAD EQ DUP1 ISZERO PUSH2 0xEB3 JUMPI POP PUSH1 0x0 DUP4 DUP4 PUSH1 0x10 DUP2 LT PUSH2 0xEAB JUMPI INVALID JUMPDEST PUSH1 0x20 MUL ADD MLOAD EQ ISZERO JUMPDEST ISZERO PUSH2 0xF8F JUMPI PUSH1 0x4 DUP3 DUP3 SUB EQ DUP1 PUSH2 0xEEA JUMPI POP PUSH1 0x8 DUP3 DUP3 SUB EQ DUP1 ISZERO PUSH2 0xEE9 JUMPI POP PUSH1 0x0 DUP4 PUSH1 0x4 DUP4 SUB PUSH1 0x10 DUP2 LT PUSH2 0xEE2 JUMPI INVALID JUMPDEST PUSH1 0x20 MUL ADD MLOAD EQ JUMPDEST JUMPDEST DUP1 PUSH2 0xF35 JUMPI POP PUSH1 0xC DUP3 DUP3 SUB EQ DUP1 ISZERO PUSH2 0xF15 JUMPI POP PUSH1 0x0 DUP4 PUSH1 0x4 DUP4 SUB PUSH1 0x10 DUP2 LT PUSH2 0xF0E JUMPI INVALID JUMPDEST PUSH1 0x20 MUL ADD MLOAD EQ JUMPDEST DUP1 ISZERO PUSH2 0xF34 JUMPI POP PUSH1 0x0 DUP4 PUSH1 0x8 DUP4 SUB PUSH1 0x10 DUP2 LT PUSH2 0xF2D JUMPI INVALID JUMPDEST PUSH1 0x20 MUL ADD MLOAD EQ JUMPDEST JUMPDEST ISZERO PUSH2 0xF8E JUMPI DUP3 DUP2 PUSH1 0x10 DUP2 LT PUSH2 0xF46 JUMPI INVALID JUMPDEST PUSH1 0x20 MUL ADD MLOAD DUP4 DUP4 PUSH1 0x10 DUP2 LT PUSH2 0xF57 JUMPI INVALID JUMPDEST PUSH1 0x20 MUL ADD MLOAD ADD DUP4 DUP3 PUSH1 0x10 DUP2 LT PUSH2 0xF69 JUMPI INVALID JUMPDEST PUSH1 0x20 MUL ADD DUP2 DUP2 MSTORE POP POP PUSH1 0x0 DUP4 DUP4 PUSH1 0x10 DUP2 LT PUSH2 0xF80 JUMPI INVALID JUMPDEST PUSH1 0x20 MUL ADD DUP2 DUP2 MSTORE POP POP PUSH2 0xF9A JUMP JUMPDEST JUMPDEST PUSH1 0x4 DUP2 SUB SWAP1 POP PUSH2 0xDF3 JUMP JUMPDEST POP JUMPDEST DUP1 PUSH1 0x1 SWAP1 SUB SWAP1 POP PUSH2 0xDB1 JUMP JUMPDEST POP DUP1 PUSH1 0x1 PUSH1 0x0 DUP5 DUP2 MSTORE PUSH1 0x20 ADD SWAP1 DUP2 MSTORE PUSH1 0x20 ADD PUSH1 0x0 KECCAK256 PUSH1 0x2 ADD SWAP1 PUSH1 0x10 PUSH2 0xFCE SWAP3 SWAP2 SWAP1 PUSH2 0x1AC8 JUMP JUMPDEST POP PUSH1 0x1 ISZERO ISZERO PUSH2 0xFDC DUP4 PUSH2 0x48C JUMP JUMPDEST ISZERO ISZERO EQ DUP1 PUSH2 0xFF6 JUMPI POP PUSH1 0x1 ISZERO ISZERO PUSH2 0xFF2 DUP4 PUSH2 0x198E JUMP JUMPDEST ISZERO ISZERO EQ JUMPDEST ISZERO PUSH2 0x102E JUMPI PUSH1 0x1 DUP1 PUSH1 0x0 DUP5 DUP2 MSTORE PUSH1 0x20 ADD SWAP1 DUP2 MSTORE PUSH1 0x20 ADD PUSH1 0x0 KECCAK256 PUSH1 0x13 ADD PUSH1 0x0 PUSH2 0x100 EXP DUP2 SLOAD DUP2 PUSH1 0xFF MUL NOT AND SWAP1 DUP4 ISZERO ISZERO MUL OR SWAP1 SSTORE POP PUSH2 0x1038 JUMP JUMPDEST PUSH2 0x1037 DUP3 PUSH2 0x6C0 JUMP JUMPDEST JUMPDEST POP POP JUMP JUMPDEST PUSH1 0x0 ISZERO ISZERO PUSH1 0x1 PUSH1 0x0 DUP4 DUP2 MSTORE PUSH1 0x20 ADD SWAP1 DUP2 MSTORE PUSH1 0x20 ADD PUSH1 0x0 KECCAK256 PUSH1 0x13 ADD PUSH1 0x0 SWAP1 SLOAD SWAP1 PUSH2 0x100 EXP SWAP1 DIV PUSH1 0xFF AND ISZERO ISZERO EQ PUSH2 0x10D9 JUMPI PUSH1 0x40 MLOAD PUSH32 0x8C379A000000000000000000000000000000000000000000000000000000000 DUP2 MSTORE PUSH1 0x4 ADD DUP1 DUP1 PUSH1 0x20 ADD DUP3 DUP2 SUB DUP3 MSTORE PUSH1 0xC DUP2 MSTORE PUSH1 0x20 ADD DUP1 PUSH32 0x47616D65206973204F7665720000000000000000000000000000000000000000 DUP2 MSTORE POP PUSH1 0x20 ADD SWAP2 POP POP PUSH1 0x40 MLOAD DUP1 SWAP2 SUB SWAP1 REVERT JUMPDEST PUSH2 0x10E1 PUSH2 0x1A79 JUMP JUMPDEST PUSH1 0x1 PUSH1 0x0 DUP4 DUP2 MSTORE PUSH1 0x20 ADD SWAP1 DUP2 MSTORE PUSH1 0x20 ADD PUSH1 0x0 KECCAK256 PUSH1 0x2 ADD PUSH1 0x10 DUP1 PUSH1 0x20 MUL PUSH1 0x40 MLOAD SWAP1 DUP2 ADD PUSH1 0x40 MSTORE DUP1 SWAP3 SWAP2 SWAP1 DUP3 PUSH1 0x10 DUP1 ISZERO PUSH2 0x112E JUMPI PUSH1 0x20 MUL DUP3 ADD SWAP2 JUMPDEST DUP2 SLOAD DUP2 MSTORE PUSH1 0x20 ADD SWAP1 PUSH1 0x1 ADD SWAP1 DUP1 DUP4 GT PUSH2 0x111A JUMPI JUMPDEST POP POP POP POP POP SWAP1 POP PUSH1 0x0 DUP1 SWAP1 POP PUSH1 0x0 DUP1 SWAP1 POP JUMPDEST PUSH1 0x10 DUP2 LT ISZERO PUSH2 0x1313 JUMPI PUSH1 0x0 DUP4 DUP3 PUSH1 0x10 DUP2 LT PUSH2 0x1157 JUMPI INVALID JUMPDEST PUSH1 0x20 MUL ADD MLOAD GT ISZERO PUSH2 0x1308 JUMPI PUSH1 0x0 PUSH1 0x4 DUP1 DUP4 DUP2 PUSH2 0x116F JUMPI INVALID JUMPDEST DIV MUL SWAP1 POP JUMPDEST DUP2 DUP2 LT ISZERO PUSH2 0x1306 JUMPI PUSH1 0x0 DUP5 DUP3 PUSH1 0x10 DUP2 LT PUSH2 0x118A JUMPI INVALID JUMPDEST PUSH1 0x20 MUL ADD MLOAD EQ ISZERO PUSH2 0x11DB JUMPI DUP4 DUP3 PUSH1 0x10 DUP2 LT PUSH2 0x11A1 JUMPI INVALID JUMPDEST PUSH1 0x20 MUL ADD MLOAD DUP5 DUP3 PUSH1 0x10 DUP2 LT PUSH2 0x11B2 JUMPI INVALID JUMPDEST PUSH1 0x20 MUL ADD DUP2 DUP2 MSTORE POP POP PUSH1 0x0 DUP5 DUP4 PUSH1 0x10 DUP2 LT PUSH2 0x11C9 JUMPI INVALID JUMPDEST PUSH1 0x20 MUL ADD DUP2 DUP2 MSTORE POP POP PUSH1 0x0 SWAP3 POP PUSH2 0x1306 JUMP JUMPDEST DUP4 DUP3 PUSH1 0x10 DUP2 LT PUSH2 0x11E7 JUMPI INVALID JUMPDEST PUSH1 0x20 MUL ADD MLOAD DUP5 DUP3 PUSH1 0x10 DUP2 LT PUSH2 0x11F8 JUMPI INVALID JUMPDEST PUSH1 0x20 MUL ADD MLOAD EQ DUP1 ISZERO PUSH2 0x121B JUMPI POP PUSH1 0x0 DUP5 DUP4 PUSH1 0x10 DUP2 LT PUSH2 0x1213 JUMPI INVALID JUMPDEST PUSH1 0x20 MUL ADD MLOAD EQ ISZERO JUMPDEST ISZERO PUSH2 0x12FB JUMPI PUSH1 0x1 DUP2 DUP4 SUB EQ DUP1 PUSH2 0x1252 JUMPI POP PUSH1 0x2 DUP2 DUP4 SUB EQ DUP1 ISZERO PUSH2 0x1251 JUMPI POP PUSH1 0x0 DUP5 PUSH1 0x1 DUP4 ADD PUSH1 0x10 DUP2 LT PUSH2 0x124A JUMPI INVALID JUMPDEST PUSH1 0x20 MUL ADD MLOAD EQ JUMPDEST JUMPDEST DUP1 PUSH2 0x129D JUMPI POP PUSH1 0x3 DUP2 DUP4 SUB EQ DUP1 ISZERO PUSH2 0x127D JUMPI POP PUSH1 0x0 DUP5 PUSH1 0x1 DUP4 ADD PUSH1 0x10 DUP2 LT PUSH2 0x1276 JUMPI INVALID JUMPDEST PUSH1 0x20 MUL ADD MLOAD EQ JUMPDEST DUP1 ISZERO PUSH2 0x129C JUMPI POP PUSH1 0x0 DUP5 PUSH1 0x2 DUP4 ADD PUSH1 0x10 DUP2 LT PUSH2 0x1295 JUMPI INVALID JUMPDEST PUSH1 0x20 MUL ADD MLOAD EQ JUMPDEST JUMPDEST ISZERO PUSH2 0x12FA JUMPI DUP4 DUP2 PUSH1 0x10 DUP2 LT PUSH2 0x12AE JUMPI INVALID JUMPDEST PUSH1 0x20 MUL ADD MLOAD DUP5 DUP4 PUSH1 0x10 DUP2 LT PUSH2 0x12BF JUMPI INVALID JUMPDEST PUSH1 0x20 MUL ADD MLOAD ADD DUP5 DUP3 PUSH1 0x10 DUP2 LT PUSH2 0x12D1 JUMPI INVALID JUMPDEST PUSH1 0x20 MUL ADD DUP2 DUP2 MSTORE POP POP PUSH1 0x0 DUP5 DUP4 PUSH1 0x10 DUP2 LT PUSH2 0x12E8 JUMPI INVALID JUMPDEST PUSH1 0x20 MUL ADD DUP2 DUP2 MSTORE POP POP PUSH1 0x0 SWAP3 POP PUSH2 0x1306 JUMP JUMPDEST JUMPDEST DUP1 PUSH1 0x1 ADD SWAP1 POP PUSH2 0x1174 JUMP JUMPDEST POP JUMPDEST DUP1 PUSH1 0x1 ADD SWAP1 POP PUSH2 0x1140 JUMP JUMPDEST POP DUP2 PUSH1 0x1 PUSH1 0x0 DUP6 DUP2 MSTORE PUSH1 0x20 ADD SWAP1 DUP2 MSTORE PUSH1 0x20 ADD PUSH1 0x0 KECCAK256 PUSH1 0x2 ADD SWAP1 PUSH1 0x10 PUSH2 0x1339 SWAP3 SWAP2 SWAP1 PUSH2 0x1AC8 JUMP JUMPDEST POP PUSH1 0x1 ISZERO ISZERO PUSH2 0x1347 DUP5 PUSH2 0x48C JUMP JUMPDEST ISZERO ISZERO EQ DUP1 PUSH2 0x1361 JUMPI POP PUSH1 0x1 ISZERO ISZERO PUSH2 0x135D DUP5 PUSH2 0x198E JUMP JUMPDEST ISZERO ISZERO EQ JUMPDEST ISZERO PUSH2 0x1399 JUMPI PUSH1 0x1 DUP1 PUSH1 0x0 DUP6 DUP2 MSTORE PUSH1 0x20 ADD SWAP1 DUP2 MSTORE PUSH1 0x20 ADD PUSH1 0x0 KECCAK256 PUSH1 0x13 ADD PUSH1 0x0 PUSH2 0x100 EXP DUP2 SLOAD DUP2 PUSH1 0xFF MUL NOT AND SWAP1 DUP4 ISZERO ISZERO MUL OR SWAP1 SSTORE POP PUSH2 0x13AA JUMP JUMPDEST DUP1 ISZERO PUSH2 0x13A9 JUMPI PUSH2 0x13A8 DUP4 PUSH2 0x6C0 JUMP JUMPDEST JUMPDEST JUMPDEST POP POP POP JUMP JUMPDEST PUSH1 0x0 ISZERO ISZERO PUSH1 0x1 PUSH1 0x0 DUP4 DUP2 MSTORE PUSH1 0x20 ADD SWAP1 DUP2 MSTORE PUSH1 0x20 ADD PUSH1 0x0 KECCAK256 PUSH1 0x13 ADD PUSH1 0x0 SWAP1 SLOAD SWAP1 PUSH2 0x100 EXP SWAP1 DIV PUSH1 0xFF AND ISZERO ISZERO EQ PUSH2 0x144C JUMPI PUSH1 0x40 MLOAD PUSH32 0x8C379A000000000000000000000000000000000000000000000000000000000 DUP2 MSTORE PUSH1 0x4 ADD DUP1 DUP1 PUSH1 0x20 ADD DUP3 DUP2 SUB DUP3 MSTORE PUSH1 0xC DUP2 MSTORE PUSH1 0x20 ADD DUP1 PUSH32 0x47616D65206973204F7665720000000000000000000000000000000000000000 DUP2 MSTORE POP PUSH1 0x20 ADD SWAP2 POP POP PUSH1 0x40 MLOAD DUP1 SWAP2 SUB SWAP1 REVERT JUMPDEST PUSH2 0x1454 PUSH2 0x1A79 JUMP JUMPDEST PUSH1 0x1 PUSH1 0x0 DUP4 DUP2 MSTORE PUSH1 0x20 ADD SWAP1 DUP2 MSTORE PUSH1 0x20 ADD PUSH1 0x0 KECCAK256 PUSH1 0x2 ADD PUSH1 0x10 DUP1 PUSH1 0x20 MUL PUSH1 0x40 MLOAD SWAP1 DUP2 ADD PUSH1 0x40 MSTORE DUP1 SWAP3 SWAP2 SWAP1 DUP3 PUSH1 0x10 DUP1 ISZERO PUSH2 0x14A1 JUMPI PUSH1 0x20 MUL DUP3 ADD SWAP2 JUMPDEST DUP2 SLOAD DUP2 MSTORE PUSH1 0x20 ADD SWAP1 PUSH1 0x1 ADD SWAP1 DUP1 DUP4 GT PUSH2 0x148D JUMPI JUMPDEST POP POP POP POP POP SWAP1 POP PUSH1 0x0 DUP1 SWAP1 POP PUSH1 0x0 PUSH1 0xF SWAP1 POP JUMPDEST PUSH1 0x0 DUP2 LT ISZERO DUP1 ISZERO PUSH2 0x14C5 JUMPI POP PUSH1 0x10 DUP2 LT JUMPDEST ISZERO PUSH2 0x1699 JUMPI PUSH1 0x0 DUP4 DUP3 PUSH1 0x10 DUP2 LT PUSH2 0x14D8 JUMPI INVALID JUMPDEST PUSH1 0x20 MUL ADD MLOAD GT ISZERO PUSH2 0x168D JUMPI PUSH1 0x0 PUSH1 0x3 PUSH1 0x4 DUP4 DUP2 PUSH2 0x14F1 JUMPI INVALID JUMPDEST MOD DUP4 SUB ADD SWAP1 POP JUMPDEST DUP2 DUP2 GT ISZERO PUSH2 0x168B JUMPI PUSH1 0x0 DUP5 DUP3 PUSH1 0x10 DUP2 LT PUSH2 0x150E JUMPI INVALID JUMPDEST PUSH1 0x20 MUL ADD MLOAD EQ ISZERO PUSH2 0x155F JUMPI DUP4 DUP3 PUSH1 0x10 DUP2 LT PUSH2 0x1525 JUMPI INVALID JUMPDEST PUSH1 0x20 MUL ADD MLOAD DUP5 DUP3 PUSH1 0x10 DUP2 LT PUSH2 0x1536 JUMPI INVALID JUMPDEST PUSH1 0x20 MUL ADD DUP2 DUP2 MSTORE POP POP PUSH1 0x0 DUP5 DUP4 PUSH1 0x10 DUP2 LT PUSH2 0x154D JUMPI INVALID JUMPDEST PUSH1 0x20 MUL ADD DUP2 DUP2 MSTORE POP POP PUSH1 0x0 SWAP3 POP PUSH2 0x168B JUMP JUMPDEST DUP4 DUP3 PUSH1 0x10 DUP2 LT PUSH2 0x156B JUMPI INVALID JUMPDEST PUSH1 0x20 MUL ADD MLOAD DUP5 DUP3 PUSH1 0x10 DUP2 LT PUSH2 0x157C JUMPI INVALID JUMPDEST PUSH1 0x20 MUL ADD MLOAD EQ DUP1 ISZERO PUSH2 0x159F JUMPI POP PUSH1 0x0 DUP5 DUP4 PUSH1 0x10 DUP2 LT PUSH2 0x1597 JUMPI INVALID JUMPDEST PUSH1 0x20 MUL ADD MLOAD EQ ISZERO JUMPDEST ISZERO PUSH2 0x167F JUMPI PUSH1 0x1 DUP3 DUP3 SUB EQ DUP1 PUSH2 0x15D6 JUMPI POP PUSH1 0x2 DUP3 DUP3 SUB EQ DUP1 ISZERO PUSH2 0x15D5 JUMPI POP PUSH1 0x0 DUP5 PUSH1 0x1 DUP4 SUB PUSH1 0x10 DUP2 LT PUSH2 0x15CE JUMPI INVALID JUMPDEST PUSH1 0x20 MUL ADD MLOAD EQ JUMPDEST JUMPDEST DUP1 PUSH2 0x1621 JUMPI POP PUSH1 0x3 DUP3 DUP3 SUB EQ DUP1 ISZERO PUSH2 0x1601 JUMPI POP PUSH1 0x0 DUP5 PUSH1 0x1 DUP4 SUB PUSH1 0x10 DUP2 LT PUSH2 0x15FA JUMPI INVALID JUMPDEST PUSH1 0x20 MUL ADD MLOAD EQ JUMPDEST DUP1 ISZERO PUSH2 0x1620 JUMPI POP PUSH1 0x0 DUP5 PUSH1 0x2 DUP4 SUB PUSH1 0x10 DUP2 LT PUSH2 0x1619 JUMPI INVALID JUMPDEST PUSH1 0x20 MUL ADD MLOAD EQ JUMPDEST JUMPDEST ISZERO PUSH2 0x167E JUMPI DUP4 DUP2 PUSH1 0x10 DUP2 LT PUSH2 0x1632 JUMPI INVALID JUMPDEST PUSH1 0x20 MUL ADD MLOAD DUP5 DUP4 PUSH1 0x10 DUP2 LT PUSH2 0x1643 JUMPI INVALID JUMPDEST PUSH1 0x20 MUL ADD MLOAD ADD DUP5 DUP3 PUSH1 0x10 DUP2 LT PUSH2 0x1655 JUMPI INVALID JUMPDEST PUSH1 0x20 MUL ADD DUP2 DUP2 MSTORE POP POP PUSH1 0x0 DUP5 DUP4 PUSH1 0x10 DUP2 LT PUSH2 0x166C JUMPI INVALID JUMPDEST PUSH1 0x20 MUL ADD DUP2 DUP2 MSTORE POP POP PUSH1 0x0 SWAP3 POP PUSH2 0x168B JUMP JUMPDEST JUMPDEST DUP1 PUSH1 0x1 SWAP1 SUB SWAP1 POP PUSH2 0x14F8 JUMP JUMPDEST POP JUMPDEST DUP1 PUSH1 0x1 SWAP1 SUB SWAP1 POP PUSH2 0x14B4 JUMP JUMPDEST POP DUP2 PUSH1 0x1 PUSH1 0x0 DUP6 DUP2 MSTORE PUSH1 0x20 ADD SWAP1 DUP2 MSTORE PUSH1 0x20 ADD PUSH1 0x0 KECCAK256 PUSH1 0x2 ADD SWAP1 PUSH1 0x10 PUSH2 0x16BF SWAP3 SWAP2 SWAP1 PUSH2 0x1AC8 JUMP JUMPDEST POP PUSH1 0x1 ISZERO ISZERO PUSH2 0x16CD DUP5 PUSH2 0x48C JUMP JUMPDEST ISZERO ISZERO EQ DUP1 PUSH2 0x16E7 JUMPI POP PUSH1 0x1 ISZERO ISZERO PUSH2 0x16E3 DUP5 PUSH2 0x198E JUMP JUMPDEST ISZERO ISZERO EQ JUMPDEST ISZERO PUSH2 0x171F JUMPI PUSH1 0x1 DUP1 PUSH1 0x0 DUP6 DUP2 MSTORE PUSH1 0x20 ADD SWAP1 DUP2 MSTORE PUSH1 0x20 ADD PUSH1 0x0 KECCAK256 PUSH1 0x13 ADD PUSH1 0x0 PUSH2 0x100 EXP DUP2 SLOAD DUP2 PUSH1 0xFF MUL NOT AND SWAP1 DUP4 ISZERO ISZERO MUL OR SWAP1 SSTORE POP PUSH2 0x1730 JUMP JUMPDEST DUP1 ISZERO PUSH2 0x172F JUMPI PUSH2 0x172E DUP4 PUSH2 0x6C0 JUMP JUMPDEST JUMPDEST JUMPDEST POP POP POP JUMP JUMPDEST PUSH1 0x0 DUP1 DUP2 SLOAD DUP1 SWAP3 SWAP2 SWAP1 PUSH1 0x1 ADD SWAP2 SWAP1 POP SSTORE POP PUSH2 0x174E PUSH2 0x1A79 JUMP JUMPDEST PUSH1 0x0 DUP1 SWAP1 POP JUMPDEST PUSH1 0x10 DUP2 LT ISZERO PUSH2 0x177F JUMPI PUSH1 0x0 DUP3 DUP3 PUSH1 0x10 DUP2 LT PUSH2 0x176B JUMPI INVALID JUMPDEST PUSH1 0x20 MUL ADD DUP2 DUP2 MSTORE POP POP DUP1 PUSH1 0x1 ADD SWAP1 POP PUSH2 0x1754 JUMP JUMPDEST POP PUSH1 0x2 DUP2 PUSH2 0x178D PUSH1 0xF PUSH2 0x923 JUMP JUMPDEST PUSH1 0x10 DUP2 LT PUSH2 0x1797 JUMPI INVALID JUMPDEST PUSH1 0x20 MUL ADD DUP2 DUP2 MSTORE POP POP PUSH1 0x60 PUSH1 0x40 MLOAD DUP1 PUSH1 0xA0 ADD PUSH1 0x40 MSTORE DUP1 PUSH1 0x0 SLOAD DUP2 MSTORE PUSH1 0x20 ADD PUSH1 0x1 ISZERO ISZERO DUP2 MSTORE PUSH1 0x20 ADD DUP4 DUP2 MSTORE PUSH1 0x20 ADD DUP3 DUP2 MSTORE PUSH1 0x20 ADD PUSH1 0x0 ISZERO ISZERO DUP2 MSTORE POP PUSH1 0x1 PUSH1 0x0 DUP1 SLOAD DUP2 MSTORE PUSH1 0x20 ADD SWAP1 DUP2 MSTORE PUSH1 0x20 ADD PUSH1 0x0 KECCAK256 PUSH1 0x0 DUP3 ADD MLOAD DUP2 PUSH1 0x0 ADD SSTORE PUSH1 0x20 DUP3 ADD MLOAD DUP2 PUSH1 0x1 ADD PUSH1 0x0 PUSH2 0x100 EXP DUP2 SLOAD DUP2 PUSH1 0xFF MUL NOT AND SWAP1 DUP4 ISZERO ISZERO MUL OR SWAP1 SSTORE POP PUSH1 0x40 DUP3 ADD MLOAD DUP2 PUSH1 0x2 ADD SWAP1 PUSH1 0x10 PUSH2 0x1826 SWAP3 SWAP2 SWAP1 PUSH2 0x1B08 JUMP JUMPDEST POP PUSH1 0x60 DUP3 ADD MLOAD DUP2 PUSH1 0x12 ADD SWAP1 DUP1 MLOAD SWAP1 PUSH1 0x20 ADD SWAP1 PUSH2 0x1843 SWAP3 SWAP2 SWAP1 PUSH2 0x1B48 JUMP JUMPDEST POP PUSH1 0x80 DUP3 ADD MLOAD DUP2 PUSH1 0x13 ADD PUSH1 0x0 PUSH2 0x100 EXP DUP2 SLOAD DUP2 PUSH1 0xFF MUL NOT AND SWAP1 DUP4 ISZERO ISZERO MUL OR SWAP1 SSTORE POP SWAP1 POP POP PUSH1 0x0 DUP1 SWAP1 POP JUMPDEST PUSH1 0x10 DUP2 LT ISZERO PUSH2 0x18EF JUMPI PUSH1 0x0 PUSH1 0x1 PUSH1 0x0 DUP1 SLOAD DUP2 MSTORE PUSH1 0x20 ADD SWAP1 DUP2 MSTORE PUSH1 0x20 ADD PUSH1 0x0 KECCAK256 PUSH1 0x2 ADD DUP3 PUSH1 0x10 DUP2 LT PUSH2 0x189A JUMPI INVALID JUMPDEST ADD SLOAD EQ ISZERO PUSH2 0x18E4 JUMPI PUSH1 0x1 PUSH1 0x0 DUP1 SLOAD DUP2 MSTORE PUSH1 0x20 ADD SWAP1 DUP2 MSTORE PUSH1 0x20 ADD PUSH1 0x0 KECCAK256 PUSH1 0x12 ADD DUP2 SWAP1 DUP1 PUSH1 0x1 DUP2 SLOAD ADD DUP1 DUP3 SSTORE DUP1 SWAP2 POP POP SWAP1 PUSH1 0x1 DUP3 SUB SWAP1 PUSH1 0x0 MSTORE PUSH1 0x20 PUSH1 0x0 KECCAK256 ADD PUSH1 0x0 SWAP1 SWAP2 SWAP3 SWAP1 SWAP2 SWAP1 SWAP2 POP SSTORE POP JUMPDEST DUP1 PUSH1 0x1 ADD SWAP1 POP PUSH2 0x186D JUMP JUMPDEST POP PUSH1 0x2 PUSH1 0x1 PUSH1 0x0 DUP1 SLOAD DUP2 MSTORE PUSH1 0x20 ADD SWAP1 DUP2 MSTORE PUSH1 0x20 ADD PUSH1 0x0 KECCAK256 PUSH1 0x2 ADD PUSH1 0x1 PUSH1 0x0 DUP1 SLOAD DUP2 MSTORE PUSH1 0x20 ADD SWAP1 DUP2 MSTORE PUSH1 0x20 ADD PUSH1 0x0 KECCAK256 PUSH1 0x12 ADD PUSH1 0x1 PUSH2 0x192C PUSH1 0xE PUSH2 0x923 JUMP JUMPDEST SUB DUP2 SLOAD DUP2 LT PUSH2 0x1937 JUMPI INVALID JUMPDEST SWAP1 PUSH1 0x0 MSTORE PUSH1 0x20 PUSH1 0x0 KECCAK256 ADD SLOAD PUSH1 0x10 DUP2 LT PUSH2 0x194C JUMPI INVALID JUMPDEST ADD DUP2 SWAP1 SSTORE POP PUSH32 0x904CB5793A55505E1395A96A8C94A6470D36ABD9B07D4C57479FEC5679D0866 PUSH1 0x0 SLOAD PUSH1 0x40 MLOAD DUP1 DUP3 DUP2 MSTORE PUSH1 0x20 ADD SWAP2 POP POP PUSH1 0x40 MLOAD DUP1 SWAP2 SUB SWAP1 LOG1 POP POP JUMP JUMPDEST PUSH1 0x0 DUP1 PUSH1 0x0 SWAP1 POP JUMPDEST PUSH1 0x10 DUP2 LT ISZERO PUSH2 0x19DF JUMPI PUSH2 0x800 PUSH1 0x1 PUSH1 0x0 DUP6 DUP2 MSTORE PUSH1 0x20 ADD SWAP1 DUP2 MSTORE PUSH1 0x20 ADD PUSH1 0x0 KECCAK256 PUSH1 0x2 ADD DUP3 PUSH1 0x10 DUP2 LT PUSH2 0x19C3 JUMPI INVALID JUMPDEST ADD SLOAD LT PUSH2 0x19D4 JUMPI PUSH1 0x1 SWAP2 POP POP PUSH2 0x19E1 JUMP JUMPDEST DUP1 PUSH1 0x1 ADD SWAP1 POP PUSH2 0x1996 JUMP JUMPDEST POP JUMPDEST SWAP2 SWAP1 POP JUMP JUMPDEST PUSH2 0x19EE PUSH2 0x1A79 JUMP JUMPDEST PUSH1 0x1 PUSH1 0x0 DUP4 DUP2 MSTORE PUSH1 0x20 ADD SWAP1 DUP2 MSTORE PUSH1 0x20 ADD PUSH1 0x0 KECCAK256 PUSH1 0x1 ADD PUSH1 0x0 SWAP1 SLOAD SWAP1 PUSH2 0x100 EXP SWAP1 DIV PUSH1 0xFF AND ISZERO PUSH2 0x1A70 JUMPI PUSH1 0x1 PUSH1 0x0 DUP4 DUP2 MSTORE PUSH1 0x20 ADD SWAP1 DUP2 MSTORE PUSH1 0x20 ADD PUSH1 0x0 KECCAK256 PUSH1 0x2 ADD PUSH1 0x10 DUP1 PUSH1 0x20 MUL PUSH1 0x40 MLOAD SWAP1 DUP2 ADD PUSH1 0x40 MSTORE DUP1 SWAP3 SWAP2 SWAP1 DUP3 PUSH1 0x10 DUP1 ISZERO PUSH2 0x1A64 JUMPI PUSH1 0x20 MUL DUP3 ADD SWAP2 JUMPDEST DUP2 SLOAD DUP2 MSTORE PUSH1 0x20 ADD SWAP1 PUSH1 0x1 ADD SWAP1 DUP1 DUP4 GT PUSH2 0x1A50 JUMPI JUMPDEST POP POP POP POP POP SWAP1 POP PUSH2 0x1A74 JUMP JUMPDEST DUP1 SWAP1 POP JUMPDEST SWAP2 SWAP1 POP JUMP JUMPDEST PUSH1 0x40 MLOAD DUP1 PUSH2 0x200 ADD PUSH1 0x40 MSTORE DUP1 PUSH1 0x10 SWAP1 PUSH1 0x20 DUP3 MUL DUP1 CODESIZE DUP4 CODECOPY DUP1 DUP3 ADD SWAP2 POP POP SWAP1 POP POP SWAP1 JUMP JUMPDEST DUP2 SLOAD DUP2 DUP4 SSTORE DUP2 DUP2 GT ISZERO PUSH2 0x1AC3 JUMPI DUP2 DUP4 PUSH1 0x0 MSTORE PUSH1 0x20 PUSH1 0x0 KECCAK256 SWAP2 DUP3 ADD SWAP2 ADD PUSH2 0x1AC2 SWAP2 SWAP1 PUSH2 0x1B95 JUMP JUMPDEST JUMPDEST POP POP POP JUMP JUMPDEST DUP3 PUSH1 0x10 DUP2 ADD SWAP3 DUP3 ISZERO PUSH2 0x1AF7 JUMPI SWAP2 PUSH1 0x20 MUL DUP3 ADD JUMPDEST DUP3 DUP2 GT ISZERO PUSH2 0x1AF6 JUMPI DUP3 MLOAD DUP3 SSTORE SWAP2 PUSH1 0x20 ADD SWAP2 SWAP1 PUSH1 0x1 ADD SWAP1 PUSH2 0x1ADB JUMP JUMPDEST JUMPDEST POP SWAP1 POP PUSH2 0x1B04 SWAP2 SWAP1 PUSH2 0x1B95 JUMP JUMPDEST POP SWAP1 JUMP JUMPDEST DUP3 PUSH1 0x10 DUP2 ADD SWAP3 DUP3 ISZERO PUSH2 0x1B37 JUMPI SWAP2 PUSH1 0x20 MUL DUP3 ADD JUMPDEST DUP3 DUP2 GT ISZERO PUSH2 0x1B36 JUMPI DUP3 MLOAD DUP3 SSTORE SWAP2 PUSH1 0x20 ADD SWAP2 SWAP1 PUSH1 0x1 ADD SWAP1 PUSH2 0x1B1B JUMP JUMPDEST JUMPDEST POP SWAP1 POP PUSH2 0x1B44 SWAP2 SWAP1 PUSH2 0x1B95 JUMP JUMPDEST POP SWAP1 JUMP JUMPDEST DUP3 DUP1 SLOAD DUP3 DUP3 SSTORE SWAP1 PUSH1 0x0 MSTORE PUSH1 0x20 PUSH1 0x0 KECCAK256 SWAP1 DUP2 ADD SWAP3 DUP3 ISZERO PUSH2 0x1B84 JUMPI SWAP2 PUSH1 0x20 MUL DUP3 ADD JUMPDEST DUP3 DUP2 GT ISZERO PUSH2 0x1B83 JUMPI DUP3 MLOAD DUP3 SSTORE SWAP2 PUSH1 0x20 ADD SWAP2 SWAP1 PUSH1 0x1 ADD SWAP1 PUSH2 0x1B68 JUMP JUMPDEST JUMPDEST POP SWAP1 POP PUSH2 0x1B91 SWAP2 SWAP1 PUSH2 0x1B95 JUMP JUMPDEST POP SWAP1 JUMP JUMPDEST PUSH2 0x1BB7 SWAP2 SWAP1 JUMPDEST DUP1 DUP3 GT ISZERO PUSH2 0x1BB3 JUMPI PUSH1 0x0 DUP2 PUSH1 0x0 SWAP1 SSTORE POP PUSH1 0x1 ADD PUSH2 0x1B9B JUMP JUMPDEST POP SWAP1 JUMP JUMPDEST SWAP1 JUMP INVALID LOG2 PUSH6 0x627A7A723158 KECCAK256 LOG0 SELFBALANCE PC SWAP16 0xB0 SWAP3 0x2C EQ PUSH14 0x24085DD4E5315E865B76E652BED2 SDIV 0xA8 0x22 0xC5 SMOD SHR PC NOT 0xA7 PUSH5 0x736F6C6343 STOP SDIV GT STOP ORIGIN "
		},
		"gasEstimates": {
			"creation": {
				"codeDepositCost": "1430200",
				"executionCost": "6499",
				"totalCost": "1436699"
			},
			"external": {
				"addTile(uint256)": "infinite",
				"games(uint256)": "2938",
				"isLost(uint256)": "infinite",
				"isWon(uint256)": "infinite",
				"moveDown(uint256)": "infinite",
				"moveLeft(uint256)": "infinite",
				"moveRight(uint256)": "infinite",
				"moveUp(uint256)": "infinite",
				"random(uint256)": "473",
				"showBoard(uint256)": "infinite",
				"startGame()": "infinite",
				"updateBoard(uint256,uint256[16])": "infinite",
				"viewEmpty(uint256)": "infinite"
			}
		},
		"methodIdentifiers": {
			"addTile(uint256)": "5b7c942c",
			"games(uint256)": "117a5b90",
			"isLost(uint256)": "3e141a5a",
			"isWon(uint256)": "e9c0932f",
			"moveDown(uint256)": "c8d55e16",
			"moveLeft(uint256)": "cb14da8d",
			"moveRight(uint256)": "d544d875",
			"moveUp(uint256)": "c77a8253",
			"random(uint256)": "b863bd37",
			"showBoard(uint256)": "f25377cf",
			"startGame()": "d65ab5f2",
			"updateBoard(uint256,uint256[16])": "9122bbcf",
			"viewEmpty(uint256)": "65595c2c"
		}
	},
	"abi": [
		{
			"anonymous": false,
			"inputs": [
				{
					"indexed": false,
					"internalType": "uint256",
					"name": "gameId",
					"type": "uint256"
				}
			],
			"name": "gameLost",
			"type": "event"
		},
		{
			"anonymous": false,
			"inputs": [
				{
					"indexed": false,
					"internalType": "uint256",
					"name": "gameId",
					"type": "uint256"
				}
			],
			"name": "gameStarted",
			"type": "event"
		},
		{
			"anonymous": false,
			"inputs": [
				{
					"indexed": false,
					"internalType": "uint256",
					"name": "gameId",
					"type": "uint256"
				}
			],
			"name": "gameWon",
			"type": "event"
		},
		{
			"constant": false,
			"inputs": [
				{
					"internalType": "uint256",
					"name": "gameId",
					"type": "uint256"
				}
			],
			"name": "addTile",
			"outputs": [],
			"payable": false,
			"stateMutability": "nonpayable",
			"type": "function"
		},
		{
			"constant": true,
			"inputs": [
				{
					"internalType": "uint256",
					"name": "",
					"type": "uint256"
				}
			],
			"name": "games",
			"outputs": [
				{
					"internalType": "uint256",
					"name": "id",
					"type": "uint256"
				},
				{
					"internalType": "bool",
					"name": "init",
					"type": "bool"
				},
				{
					"internalType": "bool",
					"name": "isOver",
					"type": "bool"
				}
			],
			"payable": false,
			"stateMutability": "view",
			"type": "function"
		},
		{
			"constant": true,
			"inputs": [
				{
					"internalType": "uint256",
					"name": "gameId",
					"type": "uint256"
				}
			],
			"name": "isLost",
			"outputs": [
				{
					"internalType": "bool",
					"name": "",
					"type": "bool"
				}
			],
			"payable": false,
			"stateMutability": "view",
			"type": "function"
		},
		{
			"constant": true,
			"inputs": [
				{
					"internalType": "uint256",
					"name": "gameId",
					"type": "uint256"
				}
			],
			"name": "isWon",
			"outputs": [
				{
					"internalType": "bool",
					"name": "",
					"type": "bool"
				}
			],
			"payable": false,
			"stateMutability": "view",
			"type": "function"
		},
		{
			"constant": false,
			"inputs": [
				{
					"internalType": "uint256",
					"name": "gameId",
					"type": "uint256"
				}
			],
			"name": "moveDown",
			"outputs": [],
			"payable": false,
			"stateMutability": "nonpayable",
			"type": "function"
		},
		{
			"constant": false,
			"inputs": [
				{
					"internalType": "uint256",
					"name": "gameId",
					"type": "uint256"
				}
			],
			"name": "moveLeft",
			"outputs": [],
			"payable": false,
			"stateMutability": "nonpayable",
			"type": "function"
		},
		{
			"constant": false,
			"inputs": [
				{
					"internalType": "uint256",
					"name": "gameId",
					"type": "uint256"
				}
			],
			"name": "moveRight",
			"outputs": [],
			"payable": false,
			"stateMutability": "nonpayable",
			"type": "function"
		},
		{
			"constant": false,
			"inputs": [
				{
					"internalType": "uint256",
					"name": "gameId",
					"type": "uint256"
				}
			],
			"name": "moveUp",
			"outputs": [],
			"payable": false,
			"stateMutability": "nonpayable",
			"type": "function"
		},
		{
			"constant": true,
			"inputs": [
				{
					"internalType": "uint256",
					"name": "modulus",
					"type": "uint256"
				}
			],
			"name": "random",
			"outputs": [
				{
					"internalType": "uint256",
					"name": "",
					"type": "uint256"
				}
			],
			"payable": false,
			"stateMutability": "view",
			"type": "function"
		},
		{
			"constant": true,
			"inputs": [
				{
					"internalType": "uint256",
					"name": "gameNumber",
					"type": "uint256"
				}
			],
			"name": "showBoard",
			"outputs": [
				{
					"internalType": "uint256[16]",
					"name": "currentBoard",
					"type": "uint256[16]"
				}
			],
			"payable": false,
			"stateMutability": "view",
			"type": "function"
		},
		{
			"constant": false,
			"inputs": [],
			"name": "startGame",
			"outputs": [],
			"payable": false,
			"stateMutability": "nonpayable",
			"type": "function"
		},
		{
			"constant": false,
			"inputs": [
				{
					"internalType": "uint256",
					"name": "gameId",
					"type": "uint256"
				},
				{
					"internalType": "uint256[16]",
					"name": "newBoard",
					"type": "uint256[16]"
				}
			],
			"name": "updateBoard",
			"outputs": [],
			"payable": false,
			"stateMutability": "nonpayable",
			"type": "function"
		},
		{
			"constant": true,
			"inputs": [
				{
					"internalType": "uint256",
					"name": "gameId",
					"type": "uint256"
				}
			],
			"name": "viewEmpty",
			"outputs": [
				{
					"internalType": "uint256[]",
					"name": "",
					"type": "uint256[]"
				}
			],
			"payable": false,
			"stateMutability": "view",
			"type": "function"
		}
	]
}