{
	"data": {
		"bytecode": {
			"linkReferences": {},
			"object": "60806040526000805534801561001457600080fd5b50611eee806100246000396000f3fe6080604052600436106100c5576000357c0100000000000000000000000000000000000000000000000000000000900463ffffffff168063117a5b90146100ca5780633e141a5a1461012f5780635b7c942c1461018257806365595c2c146101bd5780639122bbcf1461024d578063b863bd37146102cb578063c77a82531461031a578063c8d55e1614610355578063cb14da8d14610390578063d544d875146103cb578063d65ab5f214610406578063e9c0932f1461041d578063f25377cf14610470575b600080fd5b3480156100d657600080fd5b50610103600480360360208110156100ed57600080fd5b81019080803590602001909291905050506104e7565b604051808481526020018315151515815260200182151515158152602001935050505060405180910390f35b34801561013b57600080fd5b506101686004803603602081101561015257600080fd5b810190808035906020019092919050505061052b565b604051808215151515815260200191505060405180910390f35b34801561018e57600080fd5b506101bb600480360360208110156101a557600080fd5b8101908080359060200190929190505050610773565b005b3480156101c957600080fd5b506101f6600480360360208110156101e057600080fd5b8101908080359060200190929190505050610946565b6040518080602001828103825283818151815260200191508051906020019060200280838360005b8381101561023957808201518184015260208101905061021e565b505050509050019250505060405180910390f35b34801561025957600080fd5b506102c9600480360361022081101561027157600080fd5b81019080803590602001909291908061020001906010806020026040519081016040528092919082601060200280828437600081840152601f19601f82011690508083019250505050505091929192905050506109b4565b005b3480156102d757600080fd5b50610304600480360360208110156102ee57600080fd5b81019080803590602001909291905050506109de565b6040518082815260200191505060405180910390f35b34801561032657600080fd5b506103536004803603602081101561033d57600080fd5b81019080803590602001909291905050506109fe565b005b34801561036157600080fd5b5061038e6004803603602081101561037857600080fd5b8101908080359060200190929190505050610dfd565b005b34801561039c57600080fd5b506103c9600480360360208110156103b357600080fd5b8101908080359060200190929190505050611218565b005b3480156103d757600080fd5b50610404600480360360208110156103ee57600080fd5b8101908080359060200190929190505050611619565b005b34801561041257600080fd5b5061041b611a2d565b005b34801561042957600080fd5b506104566004803603602081101561044057600080fd5b8101908080359060200190929190505050611c91565b604051808215151515815260200191505060405180910390f35b34801561047c57600080fd5b506104a96004803603602081101561049357600080fd5b8101908080359060200190929190505050611ced565b6040518082601060200280838360005b838110156104d45780820151818401526020810190506104b9565b5050505090500191505060405180910390f35b60016020528060005260406000206000915090508060000154908060010160009054906101000a900460ff16908060130160009054906101000a900460ff16905083565b6000610535611d80565b60016000848152602001908152602001600020600201601080602002604051908101604052809291908260108015610582576020028201915b81548152602001906001019080831161056e575b5050505050905060006001600085815260200190815260200160002060120180549050141561076857600080905060008090505b600c8110156106095782600482016010811015156105d057fe5b602002015183826010811015156105e357fe5b602002015114156105fe57600191506000935050505061076e565b8060010190506105b6565b506000600f90505b600381111561066557826004820360108110151561062b57fe5b6020020151838260108110151561063e57fe5b6020020151141561065957600191506000935050505061076e565b80600190039050610611565b5060008090505b600c811115156106e05760008090505b60038110156106d4578360018284010160108110151561069857fe5b6020020151848284016010811015156106ad57fe5b602002015114156106c95760019250600094505050505061076e565b80600101905061067c565b5060048101905061066c565b506000600390505b600f8111151561075c5760008090505b6003811015610750578360018284030360108110151561071457fe5b60200201518482840360108110151561072957fe5b602002015114156107455760019250600094505050505061076e565b8060010190506106f8565b506004810190506106e8565b5060019250505061076e565b60009150505b919050565b60008090505b60108110156107fb57600060016000848152602001908152602001600020600201826010811015156107a757fe5b015414156107f057600160008381526020019081526020016000206012018190806001815401808255809150509060018203906000526020600020016000909192909190915055505b806001019050610779565b506000600160008381526020019081526020016000206012018054905011151561088d576040517f08c379a00000000000000000000000000000000000000000000000000000000081526004018080602001828103825260098152602001807f47414d45204f564552000000000000000000000000000000000000000000000081525060200191505060405180910390fd5b600060016108b360016000858152602001908152602001600020601201805490506109de565b039050600060016000848152602001908152602001600020601201828154811015156108db57fe5b9060005260206000200154905060026108f460026109de565b02600160008581526020019081526020016000206002018260108110151561091857fe5b0181905550600060016000858152602001908152602001600020601201816109409190611da4565b50505050565b6060600160008381526020019081526020016000206012018054806020026020016040519081016040528092919081815260200182805480156109a857602002820191906000526020600020905b815481526020019060010190808311610994575b50505050509050919050565b80600160008481526020019081526020016000206002019060106109d9929190611dd0565b505050565b60006001826001430340600190048115156109f557fe5b06019050919050565b600015156001600083815260200190815260200160002060130160009054906101000a900460ff161515141515610a9d576040517f08c379a000000000000000000000000000000000000000000000000000000000815260040180806020018281038252600c8152602001807f47616d65206973204f766572000000000000000000000000000000000000000081525060200191505060405180910390fd5b610aa5611d80565b60016000838152602001908152602001600020600201601080602002604051908101604052809291908260108015610af2576020028201915b815481526020019060010190808311610ade575b50505050509050600080905060008090505b6010811015610cf55760008382601081101515610b1d57fe5b60200201511115610cea576000600482811515610b3657fe5b0690505b81811015610ce85760008482601081101515610b5257fe5b60200201511415610ba9578382601081101515610b6b57fe5b60200201518482601081101515610b7e57fe5b60200201818152505060008483601081101515610b9757fe5b60200201818152505060019250610ce8565b8382601081101515610bb757fe5b60200201518482601081101515610bca57fe5b6020020151148015610bef575060008483601081101515610be757fe5b602002015114155b15610cdd5760048183031480610c2857506008818303148015610c27575060008460048301601081101515610c2057fe5b6020020151145b5b80610c775750600c818303148015610c55575060008460048301601081101515610c4e57fe5b6020020151145b8015610c76575060008460088301601081101515610c6f57fe5b6020020151145b5b15610cdc578381601081101515610c8a57fe5b60200201518483601081101515610c9d57fe5b6020020151018482601081101515610cb157fe5b60200201818152505060008483601081101515610cca57fe5b60200201818152505060019250610ce8565b5b600481019050610b3a565b505b806001019050610b04565b508160016000858152602001908152602001600020600201906010610d1b929190611dd0565b5060011515610d298461052b565b15151480610d43575060011515610d3f84611c91565b1515145b15610d7b57600180600085815260200190815260200160002060130160006101000a81548160ff021916908315150217905550610d8c565b8015610d8b57610d8a83610773565b5b5b7f1f58e70e62e08248cbcd501544f523fbea00c427e88929dc534b197e51b9b54760016000858152602001908152602001600020600201604051808260108015610deb576020028201915b815481526020019060010190808311610dd7575b505091505060405180910390a1505050565b600015156001600083815260200190815260200160002060130160009054906101000a900460ff161515141515610e9c576040517f08c379a000000000000000000000000000000000000000000000000000000000815260040180806020018281038252600c8152602001807f47616d65206973204f766572000000000000000000000000000000000000000081525060200191505060405180910390fd5b610ea4611d80565b60016000838152602001908152602001600020600201601080602002604051908101604052809291908260108015610ef1576020028201915b815481526020019060010190808311610edd575b505050505090506000600f90505b60008110158015610f105750601081105b156111185760008282601081101515610f2557fe5b6020020151111561110c576000600482811515610f3e57fe5b06600c0190505b8181111561110a5760008382601081101515610f5d57fe5b6020020151148015610f82575060008383601081101515610f7a57fe5b602002015114155b15610fcf578282601081101515610f9557fe5b60200201518382601081101515610fa857fe5b60200201818152505060008383601081101515610fc157fe5b60200201818152505061110a565b8282601081101515610fdd57fe5b60200201518382601081101515610ff057fe5b602002015114801561101557506000838360108110151561100d57fe5b602002015114155b156110ff576004828203148061104e5750600882820314801561104d57506000836004830360108110151561104657fe5b6020020151145b5b8061109d5750600c82820314801561107b57506000836004830360108110151561107457fe5b6020020151145b801561109c57506000836008830360108110151561109557fe5b6020020151145b5b156110fe5782816010811015156110b057fe5b602002015183836010811015156110c357fe5b60200201510183826010811015156110d757fe5b602002018181525050600083836010811015156110f057fe5b60200201818152505061110a565b5b600481039050610f45565b505b80600190039050610eff565b50806001600084815260200190815260200160002060020190601061113e929190611dd0565b506001151561114c8361052b565b1515148061116657506001151561116283611c91565b1515145b1561119e57600180600084815260200190815260200160002060130160006101000a81548160ff0219169083151502179055506111a8565b6111a782610773565b5b7f1f58e70e62e08248cbcd501544f523fbea00c427e88929dc534b197e51b9b54760016000848152602001908152602001600020600201604051808260108015611207576020028201915b8154815260200190600101908083116111f3575b505091505060405180910390a15050565b600015156001600083815260200190815260200160002060130160009054906101000a900460ff1615151415156112b7576040517f08c379a000000000000000000000000000000000000000000000000000000000815260040180806020018281038252600c8152602001807f47616d65206973204f766572000000000000000000000000000000000000000081525060200191505060405180910390fd5b6112bf611d80565b6001600083815260200190815260200160002060020160108060200260405190810160405280929190826010801561130c576020028201915b8154815260200190600101908083116112f8575b50505050509050600080905060008090505b6010811015611511576000838260108110151561133757fe5b602002015111156115065760006004808381151561135157fe5b040290505b81811015611504576000848260108110151561136e57fe5b602002015114156113c557838260108110151561138757fe5b6020020151848260108110151561139a57fe5b602002018181525050600084836010811015156113b357fe5b60200201818152505060009250611504565b83826010811015156113d357fe5b602002015184826010811015156113e657fe5b602002015114801561140b57506000848360108110151561140357fe5b602002015114155b156114f957600181830314806114445750600281830314801561144357506000846001830160108110151561143c57fe5b6020020151145b5b806114935750600381830314801561147157506000846001830160108110151561146a57fe5b6020020151145b801561149257506000846002830160108110151561148b57fe5b6020020151145b5b156114f85783816010811015156114a657fe5b602002015184836010811015156114b957fe5b60200201510184826010811015156114cd57fe5b602002018181525050600084836010811015156114e657fe5b60200201818152505060009250611504565b5b806001019050611356565b505b80600101905061131e565b508160016000858152602001908152602001600020600201906010611537929190611dd0565b50600115156115458461052b565b1515148061155f57506001151561155b84611c91565b1515145b1561159757600180600085815260200190815260200160002060130160006101000a81548160ff0219169083151502179055506115a8565b80156115a7576115a683610773565b5b5b7f1f58e70e62e08248cbcd501544f523fbea00c427e88929dc534b197e51b9b54760016000858152602001908152602001600020600201604051808260108015611607576020028201915b8154815260200190600101908083116115f3575b505091505060405180910390a1505050565b600015156001600083815260200190815260200160002060130160009054906101000a900460ff1615151415156116b8576040517f08c379a000000000000000000000000000000000000000000000000000000000815260040180806020018281038252600c8152602001807f47616d65206973204f766572000000000000000000000000000000000000000081525060200191505060405180910390fd5b6116c0611d80565b6001600083815260200190815260200160002060020160108060200260405190810160405280929190826010801561170d576020028201915b8154815260200190600101908083116116f9575b5050505050905060008090506000600f90505b600081101580156117315750601081105b15611925576000838260108110151561174657fe5b60200201511115611919576000600360048381151561176157fe5b0683030190505b81811115611917576000848260108110151561178057fe5b602002015114156117d757838260108110151561179957fe5b602002015184826010811015156117ac57fe5b602002018181525050600084836010811015156117c557fe5b60200201818152505060009250611917565b83826010811015156117e557fe5b602002015184826010811015156117f857fe5b602002015114801561181d57506000848360108110151561181557fe5b602002015114155b1561190b57600182820314806118565750600282820314801561185557506000846001830360108110151561184e57fe5b6020020151145b5b806118a55750600382820314801561188357506000846001830360108110151561187c57fe5b6020020151145b80156118a457506000846002830360108110151561189d57fe5b6020020151145b5b1561190a5783816010811015156118b857fe5b602002015184836010811015156118cb57fe5b60200201510184826010811015156118df57fe5b602002018181525050600084836010811015156118f857fe5b60200201818152505060009250611917565b5b80600190039050611768565b505b80600190039050611720565b50816001600085815260200190815260200160002060020190601061194b929190611dd0565b50600115156119598461052b565b1515148061197357506001151561196f84611c91565b1515145b156119ab57600180600085815260200190815260200160002060130160006101000a81548160ff0219169083151502179055506119bc565b80156119bb576119ba83610773565b5b5b7f1f58e70e62e08248cbcd501544f523fbea00c427e88929dc534b197e51b9b54760016000858152602001908152602001600020600201604051808260108015611a1b576020028201915b815481526020019060010190808311611a07575b505091505060405180910390a1505050565b6000808154809291906001019190505550611a46611d80565b60008090505b6010811015611a795760008282601081101515611a6557fe5b602002018181525050806001019050611a4c565b50600281611a87600f6109de565b601081101515611a9357fe5b602002018181525050606060a06040519081016040528060005481526020016001151581526020018381526020018281526020016000151581525060016000805481526020019081526020016000206000820151816000015560208201518160010160006101000a81548160ff021916908315150217905550604082015181600201906010611b23929190611e10565b506060820151816012019080519060200190611b40929190611e50565b5060808201518160130160006101000a81548160ff02191690831515021790555090505060008090505b6010811015611bee576000600160008054815260200190815260200160002060020182601081101515611b9957fe5b01541415611be35760016000805481526020019081526020016000206012018190806001815401808255809150509060018203906000526020600020016000909192909190915055505b806001019050611b6a565b506002600160008054815260200190815260200160002060020160016000805481526020019081526020016000206012016001611c2b600e6109de565b03815481101515611c3857fe5b9060005260206000200154601081101515611c4f57fe5b01819055507f0904cb5793a55505e1395a96a8c94a6470d36abd9b07d4c57479fec5679d08666000546040518082815260200191505060405180910390a15050565b600080600090505b6010811015611ce6576108006001600085815260200190815260200160002060020182601081101515611cc857fe5b0154101515611cdb576001915050611ce8565b806001019050611c99565b505b919050565b611cf5611d80565b6001600083815260200190815260200160002060010160009054906101000a900460ff1615611d775760016000838152602001908152602001600020600201601080602002604051908101604052809291908260108015611d6b576020028201915b815481526020019060010190808311611d57575b50505050509050611d7b565b8090505b919050565b61020060405190810160405280601090602082028038833980820191505090505090565b815481835581811115611dcb57818360005260206000209182019101611dca9190611e9d565b5b505050565b8260108101928215611dff579160200282015b82811115611dfe578251825591602001919060010190611de3565b5b509050611e0c9190611e9d565b5090565b8260108101928215611e3f579160200282015b82811115611e3e578251825591602001919060010190611e23565b5b509050611e4c9190611e9d565b5090565b828054828255906000526020600020908101928215611e8c579160200282015b82811115611e8b578251825591602001919060010190611e70565b5b509050611e999190611e9d565b5090565b611ebf91905b80821115611ebb576000816000905550600101611ea3565b5090565b9056fea165627a7a7230582000331775133b7525f60d0d18d7791523e06d8e474c7586c161d1174b4ab2d6330029",
			"opcodes": "PUSH1 0x80 PUSH1 0x40 MSTORE PUSH1 0x0 DUP1 SSTORE CALLVALUE DUP1 ISZERO PUSH2 0x14 JUMPI PUSH1 0x0 DUP1 REVERT JUMPDEST POP PUSH2 0x1EEE DUP1 PUSH2 0x24 PUSH1 0x0 CODECOPY PUSH1 0x0 RETURN INVALID PUSH1 0x80 PUSH1 0x40 MSTORE PUSH1 0x4 CALLDATASIZE LT PUSH2 0xC5 JUMPI PUSH1 0x0 CALLDATALOAD PUSH29 0x100000000000000000000000000000000000000000000000000000000 SWAP1 DIV PUSH4 0xFFFFFFFF AND DUP1 PUSH4 0x117A5B90 EQ PUSH2 0xCA JUMPI DUP1 PUSH4 0x3E141A5A EQ PUSH2 0x12F JUMPI DUP1 PUSH4 0x5B7C942C EQ PUSH2 0x182 JUMPI DUP1 PUSH4 0x65595C2C EQ PUSH2 0x1BD JUMPI DUP1 PUSH4 0x9122BBCF EQ PUSH2 0x24D JUMPI DUP1 PUSH4 0xB863BD37 EQ PUSH2 0x2CB JUMPI DUP1 PUSH4 0xC77A8253 EQ PUSH2 0x31A JUMPI DUP1 PUSH4 0xC8D55E16 EQ PUSH2 0x355 JUMPI DUP1 PUSH4 0xCB14DA8D EQ PUSH2 0x390 JUMPI DUP1 PUSH4 0xD544D875 EQ PUSH2 0x3CB JUMPI DUP1 PUSH4 0xD65AB5F2 EQ PUSH2 0x406 JUMPI DUP1 PUSH4 0xE9C0932F EQ PUSH2 0x41D JUMPI DUP1 PUSH4 0xF25377CF EQ PUSH2 0x470 JUMPI JUMPDEST PUSH1 0x0 DUP1 REVERT JUMPDEST CALLVALUE DUP1 ISZERO PUSH2 0xD6 JUMPI PUSH1 0x0 DUP1 REVERT JUMPDEST POP PUSH2 0x103 PUSH1 0x4 DUP1 CALLDATASIZE SUB PUSH1 0x20 DUP2 LT ISZERO PUSH2 0xED JUMPI PUSH1 0x0 DUP1 REVERT JUMPDEST DUP2 ADD SWAP1 DUP1 DUP1 CALLDATALOAD SWAP1 PUSH1 0x20 ADD SWAP1 SWAP3 SWAP2 SWAP1 POP POP POP PUSH2 0x4E7 JUMP JUMPDEST PUSH1 0x40 MLOAD DUP1 DUP5 DUP2 MSTORE PUSH1 0x20 ADD DUP4 ISZERO ISZERO ISZERO ISZERO DUP2 MSTORE PUSH1 0x20 ADD DUP3 ISZERO ISZERO ISZERO ISZERO DUP2 MSTORE PUSH1 0x20 ADD SWAP4 POP POP POP POP PUSH1 0x40 MLOAD DUP1 SWAP2 SUB SWAP1 RETURN JUMPDEST CALLVALUE DUP1 ISZERO PUSH2 0x13B JUMPI PUSH1 0x0 DUP1 REVERT JUMPDEST POP PUSH2 0x168 PUSH1 0x4 DUP1 CALLDATASIZE SUB PUSH1 0x20 DUP2 LT ISZERO PUSH2 0x152 JUMPI PUSH1 0x0 DUP1 REVERT JUMPDEST DUP2 ADD SWAP1 DUP1 DUP1 CALLDATALOAD SWAP1 PUSH1 0x20 ADD SWAP1 SWAP3 SWAP2 SWAP1 POP POP POP PUSH2 0x52B JUMP JUMPDEST PUSH1 0x40 MLOAD DUP1 DUP3 ISZERO ISZERO ISZERO ISZERO DUP2 MSTORE PUSH1 0x20 ADD SWAP2 POP POP PUSH1 0x40 MLOAD DUP1 SWAP2 SUB SWAP1 RETURN JUMPDEST CALLVALUE DUP1 ISZERO PUSH2 0x18E JUMPI PUSH1 0x0 DUP1 REVERT JUMPDEST POP PUSH2 0x1BB PUSH1 0x4 DUP1 CALLDATASIZE SUB PUSH1 0x20 DUP2 LT ISZERO PUSH2 0x1A5 JUMPI PUSH1 0x0 DUP1 REVERT JUMPDEST DUP2 ADD SWAP1 DUP1 DUP1 CALLDATALOAD SWAP1 PUSH1 0x20 ADD SWAP1 SWAP3 SWAP2 SWAP1 POP POP POP PUSH2 0x773 JUMP JUMPDEST STOP JUMPDEST CALLVALUE DUP1 ISZERO PUSH2 0x1C9 JUMPI PUSH1 0x0 DUP1 REVERT JUMPDEST POP PUSH2 0x1F6 PUSH1 0x4 DUP1 CALLDATASIZE SUB PUSH1 0x20 DUP2 LT ISZERO PUSH2 0x1E0 JUMPI PUSH1 0x0 DUP1 REVERT JUMPDEST DUP2 ADD SWAP1 DUP1 DUP1 CALLDATALOAD SWAP1 PUSH1 0x20 ADD SWAP1 SWAP3 SWAP2 SWAP1 POP POP POP PUSH2 0x946 JUMP JUMPDEST PUSH1 0x40 MLOAD DUP1 DUP1 PUSH1 0x20 ADD DUP3 DUP2 SUB DUP3 MSTORE DUP4 DUP2 DUP2 MLOAD DUP2 MSTORE PUSH1 0x20 ADD SWAP2 POP DUP1 MLOAD SWAP1 PUSH1 0x20 ADD SWAP1 PUSH1 0x20 MUL DUP1 DUP4 DUP4 PUSH1 0x0 JUMPDEST DUP4 DUP2 LT ISZERO PUSH2 0x239 JUMPI DUP1 DUP3 ADD MLOAD DUP2 DUP5 ADD MSTORE PUSH1 0x20 DUP2 ADD SWAP1 POP PUSH2 0x21E JUMP JUMPDEST POP POP POP POP SWAP1 POP ADD SWAP3 POP POP POP PUSH1 0x40 MLOAD DUP1 SWAP2 SUB SWAP1 RETURN JUMPDEST CALLVALUE DUP1 ISZERO PUSH2 0x259 JUMPI PUSH1 0x0 DUP1 REVERT JUMPDEST POP PUSH2 0x2C9 PUSH1 0x4 DUP1 CALLDATASIZE SUB PUSH2 0x220 DUP2 LT ISZERO PUSH2 0x271 JUMPI PUSH1 0x0 DUP1 REVERT JUMPDEST DUP2 ADD SWAP1 DUP1 DUP1 CALLDATALOAD SWAP1 PUSH1 0x20 ADD SWAP1 SWAP3 SWAP2 SWAP1 DUP1 PUSH2 0x200 ADD SWAP1 PUSH1 0x10 DUP1 PUSH1 0x20 MUL PUSH1 0x40 MLOAD SWAP1 DUP2 ADD PUSH1 0x40 MSTORE DUP1 SWAP3 SWAP2 SWAP1 DUP3 PUSH1 0x10 PUSH1 0x20 MUL DUP1 DUP3 DUP5 CALLDATACOPY PUSH1 0x0 DUP2 DUP5 ADD MSTORE PUSH1 0x1F NOT PUSH1 0x1F DUP3 ADD AND SWAP1 POP DUP1 DUP4 ADD SWAP3 POP POP POP POP POP POP SWAP2 SWAP3 SWAP2 SWAP3 SWAP1 POP POP POP PUSH2 0x9B4 JUMP JUMPDEST STOP JUMPDEST CALLVALUE DUP1 ISZERO PUSH2 0x2D7 JUMPI PUSH1 0x0 DUP1 REVERT JUMPDEST POP PUSH2 0x304 PUSH1 0x4 DUP1 CALLDATASIZE SUB PUSH1 0x20 DUP2 LT ISZERO PUSH2 0x2EE JUMPI PUSH1 0x0 DUP1 REVERT JUMPDEST DUP2 ADD SWAP1 DUP1 DUP1 CALLDATALOAD SWAP1 PUSH1 0x20 ADD SWAP1 SWAP3 SWAP2 SWAP1 POP POP POP PUSH2 0x9DE JUMP JUMPDEST PUSH1 0x40 MLOAD DUP1 DUP3 DUP2 MSTORE PUSH1 0x20 ADD SWAP2 POP POP PUSH1 0x40 MLOAD DUP1 SWAP2 SUB SWAP1 RETURN JUMPDEST CALLVALUE DUP1 ISZERO PUSH2 0x326 JUMPI PUSH1 0x0 DUP1 REVERT JUMPDEST POP PUSH2 0x353 PUSH1 0x4 DUP1 CALLDATASIZE SUB PUSH1 0x20 DUP2 LT ISZERO PUSH2 0x33D JUMPI PUSH1 0x0 DUP1 REVERT JUMPDEST DUP2 ADD SWAP1 DUP1 DUP1 CALLDATALOAD SWAP1 PUSH1 0x20 ADD SWAP1 SWAP3 SWAP2 SWAP1 POP POP POP PUSH2 0x9FE JUMP JUMPDEST STOP JUMPDEST CALLVALUE DUP1 ISZERO PUSH2 0x361 JUMPI PUSH1 0x0 DUP1 REVERT JUMPDEST POP PUSH2 0x38E PUSH1 0x4 DUP1 CALLDATASIZE SUB PUSH1 0x20 DUP2 LT ISZERO PUSH2 0x378 JUMPI PUSH1 0x0 DUP1 REVERT JUMPDEST DUP2 ADD SWAP1 DUP1 DUP1 CALLDATALOAD SWAP1 PUSH1 0x20 ADD SWAP1 SWAP3 SWAP2 SWAP1 POP POP POP PUSH2 0xDFD JUMP JUMPDEST STOP JUMPDEST CALLVALUE DUP1 ISZERO PUSH2 0x39C JUMPI PUSH1 0x0 DUP1 REVERT JUMPDEST POP PUSH2 0x3C9 PUSH1 0x4 DUP1 CALLDATASIZE SUB PUSH1 0x20 DUP2 LT ISZERO PUSH2 0x3B3 JUMPI PUSH1 0x0 DUP1 REVERT JUMPDEST DUP2 ADD SWAP1 DUP1 DUP1 CALLDATALOAD SWAP1 PUSH1 0x20 ADD SWAP1 SWAP3 SWAP2 SWAP1 POP POP POP PUSH2 0x1218 JUMP JUMPDEST STOP JUMPDEST CALLVALUE DUP1 ISZERO PUSH2 0x3D7 JUMPI PUSH1 0x0 DUP1 REVERT JUMPDEST POP PUSH2 0x404 PUSH1 0x4 DUP1 CALLDATASIZE SUB PUSH1 0x20 DUP2 LT ISZERO PUSH2 0x3EE JUMPI PUSH1 0x0 DUP1 REVERT JUMPDEST DUP2 ADD SWAP1 DUP1 DUP1 CALLDATALOAD SWAP1 PUSH1 0x20 ADD SWAP1 SWAP3 SWAP2 SWAP1 POP POP POP PUSH2 0x1619 JUMP JUMPDEST STOP JUMPDEST CALLVALUE DUP1 ISZERO PUSH2 0x412 JUMPI PUSH1 0x0 DUP1 REVERT JUMPDEST POP PUSH2 0x41B PUSH2 0x1A2D JUMP JUMPDEST STOP JUMPDEST CALLVALUE DUP1 ISZERO PUSH2 0x429 JUMPI PUSH1 0x0 DUP1 REVERT JUMPDEST POP PUSH2 0x456 PUSH1 0x4 DUP1 CALLDATASIZE SUB PUSH1 0x20 DUP2 LT ISZERO PUSH2 0x440 JUMPI PUSH1 0x0 DUP1 REVERT JUMPDEST DUP2 ADD SWAP1 DUP1 DUP1 CALLDATALOAD SWAP1 PUSH1 0x20 ADD SWAP1 SWAP3 SWAP2 SWAP1 POP POP POP PUSH2 0x1C91 JUMP JUMPDEST PUSH1 0x40 MLOAD DUP1 DUP3 ISZERO ISZERO ISZERO ISZERO DUP2 MSTORE PUSH1 0x20 ADD SWAP2 POP POP PUSH1 0x40 MLOAD DUP1 SWAP2 SUB SWAP1 RETURN JUMPDEST CALLVALUE DUP1 ISZERO PUSH2 0x47C JUMPI PUSH1 0x0 DUP1 REVERT JUMPDEST POP PUSH2 0x4A9 PUSH1 0x4 DUP1 CALLDATASIZE SUB PUSH1 0x20 DUP2 LT ISZERO PUSH2 0x493 JUMPI PUSH1 0x0 DUP1 REVERT JUMPDEST DUP2 ADD SWAP1 DUP1 DUP1 CALLDATALOAD SWAP1 PUSH1 0x20 ADD SWAP1 SWAP3 SWAP2 SWAP1 POP POP POP PUSH2 0x1CED JUMP JUMPDEST PUSH1 0x40 MLOAD DUP1 DUP3 PUSH1 0x10 PUSH1 0x20 MUL DUP1 DUP4 DUP4 PUSH1 0x0 JUMPDEST DUP4 DUP2 LT ISZERO PUSH2 0x4D4 JUMPI DUP1 DUP3 ADD MLOAD DUP2 DUP5 ADD MSTORE PUSH1 0x20 DUP2 ADD SWAP1 POP PUSH2 0x4B9 JUMP JUMPDEST POP POP POP POP SWAP1 POP ADD SWAP2 POP POP PUSH1 0x40 MLOAD DUP1 SWAP2 SUB SWAP1 RETURN JUMPDEST PUSH1 0x1 PUSH1 0x20 MSTORE DUP1 PUSH1 0x0 MSTORE PUSH1 0x40 PUSH1 0x0 KECCAK256 PUSH1 0x0 SWAP2 POP SWAP1 POP DUP1 PUSH1 0x0 ADD SLOAD SWAP1 DUP1 PUSH1 0x1 ADD PUSH1 0x0 SWAP1 SLOAD SWAP1 PUSH2 0x100 EXP SWAP1 DIV PUSH1 0xFF AND SWAP1 DUP1 PUSH1 0x13 ADD PUSH1 0x0 SWAP1 SLOAD SWAP1 PUSH2 0x100 EXP SWAP1 DIV PUSH1 0xFF AND SWAP1 POP DUP4 JUMP JUMPDEST PUSH1 0x0 PUSH2 0x535 PUSH2 0x1D80 JUMP JUMPDEST PUSH1 0x1 PUSH1 0x0 DUP5 DUP2 MSTORE PUSH1 0x20 ADD SWAP1 DUP2 MSTORE PUSH1 0x20 ADD PUSH1 0x0 KECCAK256 PUSH1 0x2 ADD PUSH1 0x10 DUP1 PUSH1 0x20 MUL PUSH1 0x40 MLOAD SWAP1 DUP2 ADD PUSH1 0x40 MSTORE DUP1 SWAP3 SWAP2 SWAP1 DUP3 PUSH1 0x10 DUP1 ISZERO PUSH2 0x582 JUMPI PUSH1 0x20 MUL DUP3 ADD SWAP2 JUMPDEST DUP2 SLOAD DUP2 MSTORE PUSH1 0x20 ADD SWAP1 PUSH1 0x1 ADD SWAP1 DUP1 DUP4 GT PUSH2 0x56E JUMPI JUMPDEST POP POP POP POP POP SWAP1 POP PUSH1 0x0 PUSH1 0x1 PUSH1 0x0 DUP6 DUP2 MSTORE PUSH1 0x20 ADD SWAP1 DUP2 MSTORE PUSH1 0x20 ADD PUSH1 0x0 KECCAK256 PUSH1 0x12 ADD DUP1 SLOAD SWAP1 POP EQ ISZERO PUSH2 0x768 JUMPI PUSH1 0x0 DUP1 SWAP1 POP PUSH1 0x0 DUP1 SWAP1 POP JUMPDEST PUSH1 0xC DUP2 LT ISZERO PUSH2 0x609 JUMPI DUP3 PUSH1 0x4 DUP3 ADD PUSH1 0x10 DUP2 LT ISZERO ISZERO PUSH2 0x5D0 JUMPI INVALID JUMPDEST PUSH1 0x20 MUL ADD MLOAD DUP4 DUP3 PUSH1 0x10 DUP2 LT ISZERO ISZERO PUSH2 0x5E3 JUMPI INVALID JUMPDEST PUSH1 0x20 MUL ADD MLOAD EQ ISZERO PUSH2 0x5FE JUMPI PUSH1 0x1 SWAP2 POP PUSH1 0x0 SWAP4 POP POP POP POP PUSH2 0x76E JUMP JUMPDEST DUP1 PUSH1 0x1 ADD SWAP1 POP PUSH2 0x5B6 JUMP JUMPDEST POP PUSH1 0x0 PUSH1 0xF SWAP1 POP JUMPDEST PUSH1 0x3 DUP2 GT ISZERO PUSH2 0x665 JUMPI DUP3 PUSH1 0x4 DUP3 SUB PUSH1 0x10 DUP2 LT ISZERO ISZERO PUSH2 0x62B JUMPI INVALID JUMPDEST PUSH1 0x20 MUL ADD MLOAD DUP4 DUP3 PUSH1 0x10 DUP2 LT ISZERO ISZERO PUSH2 0x63E JUMPI INVALID JUMPDEST PUSH1 0x20 MUL ADD MLOAD EQ ISZERO PUSH2 0x659 JUMPI PUSH1 0x1 SWAP2 POP PUSH1 0x0 SWAP4 POP POP POP POP PUSH2 0x76E JUMP JUMPDEST DUP1 PUSH1 0x1 SWAP1 SUB SWAP1 POP PUSH2 0x611 JUMP JUMPDEST POP PUSH1 0x0 DUP1 SWAP1 POP JUMPDEST PUSH1 0xC DUP2 GT ISZERO ISZERO PUSH2 0x6E0 JUMPI PUSH1 0x0 DUP1 SWAP1 POP JUMPDEST PUSH1 0x3 DUP2 LT ISZERO PUSH2 0x6D4 JUMPI DUP4 PUSH1 0x1 DUP3 DUP5 ADD ADD PUSH1 0x10 DUP2 LT ISZERO ISZERO PUSH2 0x698 JUMPI INVALID JUMPDEST PUSH1 0x20 MUL ADD MLOAD DUP5 DUP3 DUP5 ADD PUSH1 0x10 DUP2 LT ISZERO ISZERO PUSH2 0x6AD JUMPI INVALID JUMPDEST PUSH1 0x20 MUL ADD MLOAD EQ ISZERO PUSH2 0x6C9 JUMPI PUSH1 0x1 SWAP3 POP PUSH1 0x0 SWAP5 POP POP POP POP POP PUSH2 0x76E JUMP JUMPDEST DUP1 PUSH1 0x1 ADD SWAP1 POP PUSH2 0x67C JUMP JUMPDEST POP PUSH1 0x4 DUP2 ADD SWAP1 POP PUSH2 0x66C JUMP JUMPDEST POP PUSH1 0x0 PUSH1 0x3 SWAP1 POP JUMPDEST PUSH1 0xF DUP2 GT ISZERO ISZERO PUSH2 0x75C JUMPI PUSH1 0x0 DUP1 SWAP1 POP JUMPDEST PUSH1 0x3 DUP2 LT ISZERO PUSH2 0x750 JUMPI DUP4 PUSH1 0x1 DUP3 DUP5 SUB SUB PUSH1 0x10 DUP2 LT ISZERO ISZERO PUSH2 0x714 JUMPI INVALID JUMPDEST PUSH1 0x20 MUL ADD MLOAD DUP5 DUP3 DUP5 SUB PUSH1 0x10 DUP2 LT ISZERO ISZERO PUSH2 0x729 JUMPI INVALID JUMPDEST PUSH1 0x20 MUL ADD MLOAD EQ ISZERO PUSH2 0x745 JUMPI PUSH1 0x1 SWAP3 POP PUSH1 0x0 SWAP5 POP POP POP POP POP PUSH2 0x76E JUMP JUMPDEST DUP1 PUSH1 0x1 ADD SWAP1 POP PUSH2 0x6F8 JUMP JUMPDEST POP PUSH1 0x4 DUP2 ADD SWAP1 POP PUSH2 0x6E8 JUMP JUMPDEST POP PUSH1 0x1 SWAP3 POP POP POP PUSH2 0x76E JUMP JUMPDEST PUSH1 0x0 SWAP2 POP POP JUMPDEST SWAP2 SWAP1 POP JUMP JUMPDEST PUSH1 0x0 DUP1 SWAP1 POP JUMPDEST PUSH1 0x10 DUP2 LT ISZERO PUSH2 0x7FB JUMPI PUSH1 0x0 PUSH1 0x1 PUSH1 0x0 DUP5 DUP2 MSTORE PUSH1 0x20 ADD SWAP1 DUP2 MSTORE PUSH1 0x20 ADD PUSH1 0x0 KECCAK256 PUSH1 0x2 ADD DUP3 PUSH1 0x10 DUP2 LT ISZERO ISZERO PUSH2 0x7A7 JUMPI INVALID JUMPDEST ADD SLOAD EQ ISZERO PUSH2 0x7F0 JUMPI PUSH1 0x1 PUSH1 0x0 DUP4 DUP2 MSTORE PUSH1 0x20 ADD SWAP1 DUP2 MSTORE PUSH1 0x20 ADD PUSH1 0x0 KECCAK256 PUSH1 0x12 ADD DUP2 SWAP1 DUP1 PUSH1 0x1 DUP2 SLOAD ADD DUP1 DUP3 SSTORE DUP1 SWAP2 POP POP SWAP1 PUSH1 0x1 DUP3 SUB SWAP1 PUSH1 0x0 MSTORE PUSH1 0x20 PUSH1 0x0 KECCAK256 ADD PUSH1 0x0 SWAP1 SWAP2 SWAP3 SWAP1 SWAP2 SWAP1 SWAP2 POP SSTORE POP JUMPDEST DUP1 PUSH1 0x1 ADD SWAP1 POP PUSH2 0x779 JUMP JUMPDEST POP PUSH1 0x0 PUSH1 0x1 PUSH1 0x0 DUP4 DUP2 MSTORE PUSH1 0x20 ADD SWAP1 DUP2 MSTORE PUSH1 0x20 ADD PUSH1 0x0 KECCAK256 PUSH1 0x12 ADD DUP1 SLOAD SWAP1 POP GT ISZERO ISZERO PUSH2 0x88D JUMPI PUSH1 0x40 MLOAD PUSH32 0x8C379A000000000000000000000000000000000000000000000000000000000 DUP2 MSTORE PUSH1 0x4 ADD DUP1 DUP1 PUSH1 0x20 ADD DUP3 DUP2 SUB DUP3 MSTORE PUSH1 0x9 DUP2 MSTORE PUSH1 0x20 ADD DUP1 PUSH32 0x47414D45204F5645520000000000000000000000000000000000000000000000 DUP2 MSTORE POP PUSH1 0x20 ADD SWAP2 POP POP PUSH1 0x40 MLOAD DUP1 SWAP2 SUB SWAP1 REVERT JUMPDEST PUSH1 0x0 PUSH1 0x1 PUSH2 0x8B3 PUSH1 0x1 PUSH1 0x0 DUP6 DUP2 MSTORE PUSH1 0x20 ADD SWAP1 DUP2 MSTORE PUSH1 0x20 ADD PUSH1 0x0 KECCAK256 PUSH1 0x12 ADD DUP1 SLOAD SWAP1 POP PUSH2 0x9DE JUMP JUMPDEST SUB SWAP1 POP PUSH1 0x0 PUSH1 0x1 PUSH1 0x0 DUP5 DUP2 MSTORE PUSH1 0x20 ADD SWAP1 DUP2 MSTORE PUSH1 0x20 ADD PUSH1 0x0 KECCAK256 PUSH1 0x12 ADD DUP3 DUP2 SLOAD DUP2 LT ISZERO ISZERO PUSH2 0x8DB JUMPI INVALID JUMPDEST SWAP1 PUSH1 0x0 MSTORE PUSH1 0x20 PUSH1 0x0 KECCAK256 ADD SLOAD SWAP1 POP PUSH1 0x2 PUSH2 0x8F4 PUSH1 0x2 PUSH2 0x9DE JUMP JUMPDEST MUL PUSH1 0x1 PUSH1 0x0 DUP6 DUP2 MSTORE PUSH1 0x20 ADD SWAP1 DUP2 MSTORE PUSH1 0x20 ADD PUSH1 0x0 KECCAK256 PUSH1 0x2 ADD DUP3 PUSH1 0x10 DUP2 LT ISZERO ISZERO PUSH2 0x918 JUMPI INVALID JUMPDEST ADD DUP2 SWAP1 SSTORE POP PUSH1 0x0 PUSH1 0x1 PUSH1 0x0 DUP6 DUP2 MSTORE PUSH1 0x20 ADD SWAP1 DUP2 MSTORE PUSH1 0x20 ADD PUSH1 0x0 KECCAK256 PUSH1 0x12 ADD DUP2 PUSH2 0x940 SWAP2 SWAP1 PUSH2 0x1DA4 JUMP JUMPDEST POP POP POP POP JUMP JUMPDEST PUSH1 0x60 PUSH1 0x1 PUSH1 0x0 DUP4 DUP2 MSTORE PUSH1 0x20 ADD SWAP1 DUP2 MSTORE PUSH1 0x20 ADD PUSH1 0x0 KECCAK256 PUSH1 0x12 ADD DUP1 SLOAD DUP1 PUSH1 0x20 MUL PUSH1 0x20 ADD PUSH1 0x40 MLOAD SWAP1 DUP2 ADD PUSH1 0x40 MSTORE DUP1 SWAP3 SWAP2 SWAP1 DUP2 DUP2 MSTORE PUSH1 0x20 ADD DUP3 DUP1 SLOAD DUP1 ISZERO PUSH2 0x9A8 JUMPI PUSH1 0x20 MUL DUP3 ADD SWAP2 SWAP1 PUSH1 0x0 MSTORE PUSH1 0x20 PUSH1 0x0 KECCAK256 SWAP1 JUMPDEST DUP2 SLOAD DUP2 MSTORE PUSH1 0x20 ADD SWAP1 PUSH1 0x1 ADD SWAP1 DUP1 DUP4 GT PUSH2 0x994 JUMPI JUMPDEST POP POP POP POP POP SWAP1 POP SWAP2 SWAP1 POP JUMP JUMPDEST DUP1 PUSH1 0x1 PUSH1 0x0 DUP5 DUP2 MSTORE PUSH1 0x20 ADD SWAP1 DUP2 MSTORE PUSH1 0x20 ADD PUSH1 0x0 KECCAK256 PUSH1 0x2 ADD SWAP1 PUSH1 0x10 PUSH2 0x9D9 SWAP3 SWAP2 SWAP1 PUSH2 0x1DD0 JUMP JUMPDEST POP POP POP JUMP JUMPDEST PUSH1 0x0 PUSH1 0x1 DUP3 PUSH1 0x1 NUMBER SUB BLOCKHASH PUSH1 0x1 SWAP1 DIV DUP2 ISZERO ISZERO PUSH2 0x9F5 JUMPI INVALID JUMPDEST MOD ADD SWAP1 POP SWAP2 SWAP1 POP JUMP JUMPDEST PUSH1 0x0 ISZERO ISZERO PUSH1 0x1 PUSH1 0x0 DUP4 DUP2 MSTORE PUSH1 0x20 ADD SWAP1 DUP2 MSTORE PUSH1 0x20 ADD PUSH1 0x0 KECCAK256 PUSH1 0x13 ADD PUSH1 0x0 SWAP1 SLOAD SWAP1 PUSH2 0x100 EXP SWAP1 DIV PUSH1 0xFF AND ISZERO ISZERO EQ ISZERO ISZERO PUSH2 0xA9D JUMPI PUSH1 0x40 MLOAD PUSH32 0x8C379A000000000000000000000000000000000000000000000000000000000 DUP2 MSTORE PUSH1 0x4 ADD DUP1 DUP1 PUSH1 0x20 ADD DUP3 DUP2 SUB DUP3 MSTORE PUSH1 0xC DUP2 MSTORE PUSH1 0x20 ADD DUP1 PUSH32 0x47616D65206973204F7665720000000000000000000000000000000000000000 DUP2 MSTORE POP PUSH1 0x20 ADD SWAP2 POP POP PUSH1 0x40 MLOAD DUP1 SWAP2 SUB SWAP1 REVERT JUMPDEST PUSH2 0xAA5 PUSH2 0x1D80 JUMP JUMPDEST PUSH1 0x1 PUSH1 0x0 DUP4 DUP2 MSTORE PUSH1 0x20 ADD SWAP1 DUP2 MSTORE PUSH1 0x20 ADD PUSH1 0x0 KECCAK256 PUSH1 0x2 ADD PUSH1 0x10 DUP1 PUSH1 0x20 MUL PUSH1 0x40 MLOAD SWAP1 DUP2 ADD PUSH1 0x40 MSTORE DUP1 SWAP3 SWAP2 SWAP1 DUP3 PUSH1 0x10 DUP1 ISZERO PUSH2 0xAF2 JUMPI PUSH1 0x20 MUL DUP3 ADD SWAP2 JUMPDEST DUP2 SLOAD DUP2 MSTORE PUSH1 0x20 ADD SWAP1 PUSH1 0x1 ADD SWAP1 DUP1 DUP4 GT PUSH2 0xADE JUMPI JUMPDEST POP POP POP POP POP SWAP1 POP PUSH1 0x0 DUP1 SWAP1 POP PUSH1 0x0 DUP1 SWAP1 POP JUMPDEST PUSH1 0x10 DUP2 LT ISZERO PUSH2 0xCF5 JUMPI PUSH1 0x0 DUP4 DUP3 PUSH1 0x10 DUP2 LT ISZERO ISZERO PUSH2 0xB1D JUMPI INVALID JUMPDEST PUSH1 0x20 MUL ADD MLOAD GT ISZERO PUSH2 0xCEA JUMPI PUSH1 0x0 PUSH1 0x4 DUP3 DUP2 ISZERO ISZERO PUSH2 0xB36 JUMPI INVALID JUMPDEST MOD SWAP1 POP JUMPDEST DUP2 DUP2 LT ISZERO PUSH2 0xCE8 JUMPI PUSH1 0x0 DUP5 DUP3 PUSH1 0x10 DUP2 LT ISZERO ISZERO PUSH2 0xB52 JUMPI INVALID JUMPDEST PUSH1 0x20 MUL ADD MLOAD EQ ISZERO PUSH2 0xBA9 JUMPI DUP4 DUP3 PUSH1 0x10 DUP2 LT ISZERO ISZERO PUSH2 0xB6B JUMPI INVALID JUMPDEST PUSH1 0x20 MUL ADD MLOAD DUP5 DUP3 PUSH1 0x10 DUP2 LT ISZERO ISZERO PUSH2 0xB7E JUMPI INVALID JUMPDEST PUSH1 0x20 MUL ADD DUP2 DUP2 MSTORE POP POP PUSH1 0x0 DUP5 DUP4 PUSH1 0x10 DUP2 LT ISZERO ISZERO PUSH2 0xB97 JUMPI INVALID JUMPDEST PUSH1 0x20 MUL ADD DUP2 DUP2 MSTORE POP POP PUSH1 0x1 SWAP3 POP PUSH2 0xCE8 JUMP JUMPDEST DUP4 DUP3 PUSH1 0x10 DUP2 LT ISZERO ISZERO PUSH2 0xBB7 JUMPI INVALID JUMPDEST PUSH1 0x20 MUL ADD MLOAD DUP5 DUP3 PUSH1 0x10 DUP2 LT ISZERO ISZERO PUSH2 0xBCA JUMPI INVALID JUMPDEST PUSH1 0x20 MUL ADD MLOAD EQ DUP1 ISZERO PUSH2 0xBEF JUMPI POP PUSH1 0x0 DUP5 DUP4 PUSH1 0x10 DUP2 LT ISZERO ISZERO PUSH2 0xBE7 JUMPI INVALID JUMPDEST PUSH1 0x20 MUL ADD MLOAD EQ ISZERO JUMPDEST ISZERO PUSH2 0xCDD JUMPI PUSH1 0x4 DUP2 DUP4 SUB EQ DUP1 PUSH2 0xC28 JUMPI POP PUSH1 0x8 DUP2 DUP4 SUB EQ DUP1 ISZERO PUSH2 0xC27 JUMPI POP PUSH1 0x0 DUP5 PUSH1 0x4 DUP4 ADD PUSH1 0x10 DUP2 LT ISZERO ISZERO PUSH2 0xC20 JUMPI INVALID JUMPDEST PUSH1 0x20 MUL ADD MLOAD EQ JUMPDEST JUMPDEST DUP1 PUSH2 0xC77 JUMPI POP PUSH1 0xC DUP2 DUP4 SUB EQ DUP1 ISZERO PUSH2 0xC55 JUMPI POP PUSH1 0x0 DUP5 PUSH1 0x4 DUP4 ADD PUSH1 0x10 DUP2 LT ISZERO ISZERO PUSH2 0xC4E JUMPI INVALID JUMPDEST PUSH1 0x20 MUL ADD MLOAD EQ JUMPDEST DUP1 ISZERO PUSH2 0xC76 JUMPI POP PUSH1 0x0 DUP5 PUSH1 0x8 DUP4 ADD PUSH1 0x10 DUP2 LT ISZERO ISZERO PUSH2 0xC6F JUMPI INVALID JUMPDEST PUSH1 0x20 MUL ADD MLOAD EQ JUMPDEST JUMPDEST ISZERO PUSH2 0xCDC JUMPI DUP4 DUP2 PUSH1 0x10 DUP2 LT ISZERO ISZERO PUSH2 0xC8A JUMPI INVALID JUMPDEST PUSH1 0x20 MUL ADD MLOAD DUP5 DUP4 PUSH1 0x10 DUP2 LT ISZERO ISZERO PUSH2 0xC9D JUMPI INVALID JUMPDEST PUSH1 0x20 MUL ADD MLOAD ADD DUP5 DUP3 PUSH1 0x10 DUP2 LT ISZERO ISZERO PUSH2 0xCB1 JUMPI INVALID JUMPDEST PUSH1 0x20 MUL ADD DUP2 DUP2 MSTORE POP POP PUSH1 0x0 DUP5 DUP4 PUSH1 0x10 DUP2 LT ISZERO ISZERO PUSH2 0xCCA JUMPI INVALID JUMPDEST PUSH1 0x20 MUL ADD DUP2 DUP2 MSTORE POP POP PUSH1 0x1 SWAP3 POP PUSH2 0xCE8 JUMP JUMPDEST JUMPDEST PUSH1 0x4 DUP2 ADD SWAP1 POP PUSH2 0xB3A JUMP JUMPDEST POP JUMPDEST DUP1 PUSH1 0x1 ADD SWAP1 POP PUSH2 0xB04 JUMP JUMPDEST POP DUP2 PUSH1 0x1 PUSH1 0x0 DUP6 DUP2 MSTORE PUSH1 0x20 ADD SWAP1 DUP2 MSTORE PUSH1 0x20 ADD PUSH1 0x0 KECCAK256 PUSH1 0x2 ADD SWAP1 PUSH1 0x10 PUSH2 0xD1B SWAP3 SWAP2 SWAP1 PUSH2 0x1DD0 JUMP JUMPDEST POP PUSH1 0x1 ISZERO ISZERO PUSH2 0xD29 DUP5 PUSH2 0x52B JUMP JUMPDEST ISZERO ISZERO EQ DUP1 PUSH2 0xD43 JUMPI POP PUSH1 0x1 ISZERO ISZERO PUSH2 0xD3F DUP5 PUSH2 0x1C91 JUMP JUMPDEST ISZERO ISZERO EQ JUMPDEST ISZERO PUSH2 0xD7B JUMPI PUSH1 0x1 DUP1 PUSH1 0x0 DUP6 DUP2 MSTORE PUSH1 0x20 ADD SWAP1 DUP2 MSTORE PUSH1 0x20 ADD PUSH1 0x0 KECCAK256 PUSH1 0x13 ADD PUSH1 0x0 PUSH2 0x100 EXP DUP2 SLOAD DUP2 PUSH1 0xFF MUL NOT AND SWAP1 DUP4 ISZERO ISZERO MUL OR SWAP1 SSTORE POP PUSH2 0xD8C JUMP JUMPDEST DUP1 ISZERO PUSH2 0xD8B JUMPI PUSH2 0xD8A DUP4 PUSH2 0x773 JUMP JUMPDEST JUMPDEST JUMPDEST PUSH32 0x1F58E70E62E08248CBCD501544F523FBEA00C427E88929DC534B197E51B9B547 PUSH1 0x1 PUSH1 0x0 DUP6 DUP2 MSTORE PUSH1 0x20 ADD SWAP1 DUP2 MSTORE PUSH1 0x20 ADD PUSH1 0x0 KECCAK256 PUSH1 0x2 ADD PUSH1 0x40 MLOAD DUP1 DUP3 PUSH1 0x10 DUP1 ISZERO PUSH2 0xDEB JUMPI PUSH1 0x20 MUL DUP3 ADD SWAP2 JUMPDEST DUP2 SLOAD DUP2 MSTORE PUSH1 0x20 ADD SWAP1 PUSH1 0x1 ADD SWAP1 DUP1 DUP4 GT PUSH2 0xDD7 JUMPI JUMPDEST POP POP SWAP2 POP POP PUSH1 0x40 MLOAD DUP1 SWAP2 SUB SWAP1 LOG1 POP POP POP JUMP JUMPDEST PUSH1 0x0 ISZERO ISZERO PUSH1 0x1 PUSH1 0x0 DUP4 DUP2 MSTORE PUSH1 0x20 ADD SWAP1 DUP2 MSTORE PUSH1 0x20 ADD PUSH1 0x0 KECCAK256 PUSH1 0x13 ADD PUSH1 0x0 SWAP1 SLOAD SWAP1 PUSH2 0x100 EXP SWAP1 DIV PUSH1 0xFF AND ISZERO ISZERO EQ ISZERO ISZERO PUSH2 0xE9C JUMPI PUSH1 0x40 MLOAD PUSH32 0x8C379A000000000000000000000000000000000000000000000000000000000 DUP2 MSTORE PUSH1 0x4 ADD DUP1 DUP1 PUSH1 0x20 ADD DUP3 DUP2 SUB DUP3 MSTORE PUSH1 0xC DUP2 MSTORE PUSH1 0x20 ADD DUP1 PUSH32 0x47616D65206973204F7665720000000000000000000000000000000000000000 DUP2 MSTORE POP PUSH1 0x20 ADD SWAP2 POP POP PUSH1 0x40 MLOAD DUP1 SWAP2 SUB SWAP1 REVERT JUMPDEST PUSH2 0xEA4 PUSH2 0x1D80 JUMP JUMPDEST PUSH1 0x1 PUSH1 0x0 DUP4 DUP2 MSTORE PUSH1 0x20 ADD SWAP1 DUP2 MSTORE PUSH1 0x20 ADD PUSH1 0x0 KECCAK256 PUSH1 0x2 ADD PUSH1 0x10 DUP1 PUSH1 0x20 MUL PUSH1 0x40 MLOAD SWAP1 DUP2 ADD PUSH1 0x40 MSTORE DUP1 SWAP3 SWAP2 SWAP1 DUP3 PUSH1 0x10 DUP1 ISZERO PUSH2 0xEF1 JUMPI PUSH1 0x20 MUL DUP3 ADD SWAP2 JUMPDEST DUP2 SLOAD DUP2 MSTORE PUSH1 0x20 ADD SWAP1 PUSH1 0x1 ADD SWAP1 DUP1 DUP4 GT PUSH2 0xEDD JUMPI JUMPDEST POP POP POP POP POP SWAP1 POP PUSH1 0x0 PUSH1 0xF SWAP1 POP JUMPDEST PUSH1 0x0 DUP2 LT ISZERO DUP1 ISZERO PUSH2 0xF10 JUMPI POP PUSH1 0x10 DUP2 LT JUMPDEST ISZERO PUSH2 0x1118 JUMPI PUSH1 0x0 DUP3 DUP3 PUSH1 0x10 DUP2 LT ISZERO ISZERO PUSH2 0xF25 JUMPI INVALID JUMPDEST PUSH1 0x20 MUL ADD MLOAD GT ISZERO PUSH2 0x110C JUMPI PUSH1 0x0 PUSH1 0x4 DUP3 DUP2 ISZERO ISZERO PUSH2 0xF3E JUMPI INVALID JUMPDEST MOD PUSH1 0xC ADD SWAP1 POP JUMPDEST DUP2 DUP2 GT ISZERO PUSH2 0x110A JUMPI PUSH1 0x0 DUP4 DUP3 PUSH1 0x10 DUP2 LT ISZERO ISZERO PUSH2 0xF5D JUMPI INVALID JUMPDEST PUSH1 0x20 MUL ADD MLOAD EQ DUP1 ISZERO PUSH2 0xF82 JUMPI POP PUSH1 0x0 DUP4 DUP4 PUSH1 0x10 DUP2 LT ISZERO ISZERO PUSH2 0xF7A JUMPI INVALID JUMPDEST PUSH1 0x20 MUL ADD MLOAD EQ ISZERO JUMPDEST ISZERO PUSH2 0xFCF JUMPI DUP3 DUP3 PUSH1 0x10 DUP2 LT ISZERO ISZERO PUSH2 0xF95 JUMPI INVALID JUMPDEST PUSH1 0x20 MUL ADD MLOAD DUP4 DUP3 PUSH1 0x10 DUP2 LT ISZERO ISZERO PUSH2 0xFA8 JUMPI INVALID JUMPDEST PUSH1 0x20 MUL ADD DUP2 DUP2 MSTORE POP POP PUSH1 0x0 DUP4 DUP4 PUSH1 0x10 DUP2 LT ISZERO ISZERO PUSH2 0xFC1 JUMPI INVALID JUMPDEST PUSH1 0x20 MUL ADD DUP2 DUP2 MSTORE POP POP PUSH2 0x110A JUMP JUMPDEST DUP3 DUP3 PUSH1 0x10 DUP2 LT ISZERO ISZERO PUSH2 0xFDD JUMPI INVALID JUMPDEST PUSH1 0x20 MUL ADD MLOAD DUP4 DUP3 PUSH1 0x10 DUP2 LT ISZERO ISZERO PUSH2 0xFF0 JUMPI INVALID JUMPDEST PUSH1 0x20 MUL ADD MLOAD EQ DUP1 ISZERO PUSH2 0x1015 JUMPI POP PUSH1 0x0 DUP4 DUP4 PUSH1 0x10 DUP2 LT ISZERO ISZERO PUSH2 0x100D JUMPI INVALID JUMPDEST PUSH1 0x20 MUL ADD MLOAD EQ ISZERO JUMPDEST ISZERO PUSH2 0x10FF JUMPI PUSH1 0x4 DUP3 DUP3 SUB EQ DUP1 PUSH2 0x104E JUMPI POP PUSH1 0x8 DUP3 DUP3 SUB EQ DUP1 ISZERO PUSH2 0x104D JUMPI POP PUSH1 0x0 DUP4 PUSH1 0x4 DUP4 SUB PUSH1 0x10 DUP2 LT ISZERO ISZERO PUSH2 0x1046 JUMPI INVALID JUMPDEST PUSH1 0x20 MUL ADD MLOAD EQ JUMPDEST JUMPDEST DUP1 PUSH2 0x109D JUMPI POP PUSH1 0xC DUP3 DUP3 SUB EQ DUP1 ISZERO PUSH2 0x107B JUMPI POP PUSH1 0x0 DUP4 PUSH1 0x4 DUP4 SUB PUSH1 0x10 DUP2 LT ISZERO ISZERO PUSH2 0x1074 JUMPI INVALID JUMPDEST PUSH1 0x20 MUL ADD MLOAD EQ JUMPDEST DUP1 ISZERO PUSH2 0x109C JUMPI POP PUSH1 0x0 DUP4 PUSH1 0x8 DUP4 SUB PUSH1 0x10 DUP2 LT ISZERO ISZERO PUSH2 0x1095 JUMPI INVALID JUMPDEST PUSH1 0x20 MUL ADD MLOAD EQ JUMPDEST JUMPDEST ISZERO PUSH2 0x10FE JUMPI DUP3 DUP2 PUSH1 0x10 DUP2 LT ISZERO ISZERO PUSH2 0x10B0 JUMPI INVALID JUMPDEST PUSH1 0x20 MUL ADD MLOAD DUP4 DUP4 PUSH1 0x10 DUP2 LT ISZERO ISZERO PUSH2 0x10C3 JUMPI INVALID JUMPDEST PUSH1 0x20 MUL ADD MLOAD ADD DUP4 DUP3 PUSH1 0x10 DUP2 LT ISZERO ISZERO PUSH2 0x10D7 JUMPI INVALID JUMPDEST PUSH1 0x20 MUL ADD DUP2 DUP2 MSTORE POP POP PUSH1 0x0 DUP4 DUP4 PUSH1 0x10 DUP2 LT ISZERO ISZERO PUSH2 0x10F0 JUMPI INVALID JUMPDEST PUSH1 0x20 MUL ADD DUP2 DUP2 MSTORE POP POP PUSH2 0x110A JUMP JUMPDEST JUMPDEST PUSH1 0x4 DUP2 SUB SWAP1 POP PUSH2 0xF45 JUMP JUMPDEST POP JUMPDEST DUP1 PUSH1 0x1 SWAP1 SUB SWAP1 POP PUSH2 0xEFF JUMP JUMPDEST POP DUP1 PUSH1 0x1 PUSH1 0x0 DUP5 DUP2 MSTORE PUSH1 0x20 ADD SWAP1 DUP2 MSTORE PUSH1 0x20 ADD PUSH1 0x0 KECCAK256 PUSH1 0x2 ADD SWAP1 PUSH1 0x10 PUSH2 0x113E SWAP3 SWAP2 SWAP1 PUSH2 0x1DD0 JUMP JUMPDEST POP PUSH1 0x1 ISZERO ISZERO PUSH2 0x114C DUP4 PUSH2 0x52B JUMP JUMPDEST ISZERO ISZERO EQ DUP1 PUSH2 0x1166 JUMPI POP PUSH1 0x1 ISZERO ISZERO PUSH2 0x1162 DUP4 PUSH2 0x1C91 JUMP JUMPDEST ISZERO ISZERO EQ JUMPDEST ISZERO PUSH2 0x119E JUMPI PUSH1 0x1 DUP1 PUSH1 0x0 DUP5 DUP2 MSTORE PUSH1 0x20 ADD SWAP1 DUP2 MSTORE PUSH1 0x20 ADD PUSH1 0x0 KECCAK256 PUSH1 0x13 ADD PUSH1 0x0 PUSH2 0x100 EXP DUP2 SLOAD DUP2 PUSH1 0xFF MUL NOT AND SWAP1 DUP4 ISZERO ISZERO MUL OR SWAP1 SSTORE POP PUSH2 0x11A8 JUMP JUMPDEST PUSH2 0x11A7 DUP3 PUSH2 0x773 JUMP JUMPDEST JUMPDEST PUSH32 0x1F58E70E62E08248CBCD501544F523FBEA00C427E88929DC534B197E51B9B547 PUSH1 0x1 PUSH1 0x0 DUP5 DUP2 MSTORE PUSH1 0x20 ADD SWAP1 DUP2 MSTORE PUSH1 0x20 ADD PUSH1 0x0 KECCAK256 PUSH1 0x2 ADD PUSH1 0x40 MLOAD DUP1 DUP3 PUSH1 0x10 DUP1 ISZERO PUSH2 0x1207 JUMPI PUSH1 0x20 MUL DUP3 ADD SWAP2 JUMPDEST DUP2 SLOAD DUP2 MSTORE PUSH1 0x20 ADD SWAP1 PUSH1 0x1 ADD SWAP1 DUP1 DUP4 GT PUSH2 0x11F3 JUMPI JUMPDEST POP POP SWAP2 POP POP PUSH1 0x40 MLOAD DUP1 SWAP2 SUB SWAP1 LOG1 POP POP JUMP JUMPDEST PUSH1 0x0 ISZERO ISZERO PUSH1 0x1 PUSH1 0x0 DUP4 DUP2 MSTORE PUSH1 0x20 ADD SWAP1 DUP2 MSTORE PUSH1 0x20 ADD PUSH1 0x0 KECCAK256 PUSH1 0x13 ADD PUSH1 0x0 SWAP1 SLOAD SWAP1 PUSH2 0x100 EXP SWAP1 DIV PUSH1 0xFF AND ISZERO ISZERO EQ ISZERO ISZERO PUSH2 0x12B7 JUMPI PUSH1 0x40 MLOAD PUSH32 0x8C379A000000000000000000000000000000000000000000000000000000000 DUP2 MSTORE PUSH1 0x4 ADD DUP1 DUP1 PUSH1 0x20 ADD DUP3 DUP2 SUB DUP3 MSTORE PUSH1 0xC DUP2 MSTORE PUSH1 0x20 ADD DUP1 PUSH32 0x47616D65206973204F7665720000000000000000000000000000000000000000 DUP2 MSTORE POP PUSH1 0x20 ADD SWAP2 POP POP PUSH1 0x40 MLOAD DUP1 SWAP2 SUB SWAP1 REVERT JUMPDEST PUSH2 0x12BF PUSH2 0x1D80 JUMP JUMPDEST PUSH1 0x1 PUSH1 0x0 DUP4 DUP2 MSTORE PUSH1 0x20 ADD SWAP1 DUP2 MSTORE PUSH1 0x20 ADD PUSH1 0x0 KECCAK256 PUSH1 0x2 ADD PUSH1 0x10 DUP1 PUSH1 0x20 MUL PUSH1 0x40 MLOAD SWAP1 DUP2 ADD PUSH1 0x40 MSTORE DUP1 SWAP3 SWAP2 SWAP1 DUP3 PUSH1 0x10 DUP1 ISZERO PUSH2 0x130C JUMPI PUSH1 0x20 MUL DUP3 ADD SWAP2 JUMPDEST DUP2 SLOAD DUP2 MSTORE PUSH1 0x20 ADD SWAP1 PUSH1 0x1 ADD SWAP1 DUP1 DUP4 GT PUSH2 0x12F8 JUMPI JUMPDEST POP POP POP POP POP SWAP1 POP PUSH1 0x0 DUP1 SWAP1 POP PUSH1 0x0 DUP1 SWAP1 POP JUMPDEST PUSH1 0x10 DUP2 LT ISZERO PUSH2 0x1511 JUMPI PUSH1 0x0 DUP4 DUP3 PUSH1 0x10 DUP2 LT ISZERO ISZERO PUSH2 0x1337 JUMPI INVALID JUMPDEST PUSH1 0x20 MUL ADD MLOAD GT ISZERO PUSH2 0x1506 JUMPI PUSH1 0x0 PUSH1 0x4 DUP1 DUP4 DUP2 ISZERO ISZERO PUSH2 0x1351 JUMPI INVALID JUMPDEST DIV MUL SWAP1 POP JUMPDEST DUP2 DUP2 LT ISZERO PUSH2 0x1504 JUMPI PUSH1 0x0 DUP5 DUP3 PUSH1 0x10 DUP2 LT ISZERO ISZERO PUSH2 0x136E JUMPI INVALID JUMPDEST PUSH1 0x20 MUL ADD MLOAD EQ ISZERO PUSH2 0x13C5 JUMPI DUP4 DUP3 PUSH1 0x10 DUP2 LT ISZERO ISZERO PUSH2 0x1387 JUMPI INVALID JUMPDEST PUSH1 0x20 MUL ADD MLOAD DUP5 DUP3 PUSH1 0x10 DUP2 LT ISZERO ISZERO PUSH2 0x139A JUMPI INVALID JUMPDEST PUSH1 0x20 MUL ADD DUP2 DUP2 MSTORE POP POP PUSH1 0x0 DUP5 DUP4 PUSH1 0x10 DUP2 LT ISZERO ISZERO PUSH2 0x13B3 JUMPI INVALID JUMPDEST PUSH1 0x20 MUL ADD DUP2 DUP2 MSTORE POP POP PUSH1 0x0 SWAP3 POP PUSH2 0x1504 JUMP JUMPDEST DUP4 DUP3 PUSH1 0x10 DUP2 LT ISZERO ISZERO PUSH2 0x13D3 JUMPI INVALID JUMPDEST PUSH1 0x20 MUL ADD MLOAD DUP5 DUP3 PUSH1 0x10 DUP2 LT ISZERO ISZERO PUSH2 0x13E6 JUMPI INVALID JUMPDEST PUSH1 0x20 MUL ADD MLOAD EQ DUP1 ISZERO PUSH2 0x140B JUMPI POP PUSH1 0x0 DUP5 DUP4 PUSH1 0x10 DUP2 LT ISZERO ISZERO PUSH2 0x1403 JUMPI INVALID JUMPDEST PUSH1 0x20 MUL ADD MLOAD EQ ISZERO JUMPDEST ISZERO PUSH2 0x14F9 JUMPI PUSH1 0x1 DUP2 DUP4 SUB EQ DUP1 PUSH2 0x1444 JUMPI POP PUSH1 0x2 DUP2 DUP4 SUB EQ DUP1 ISZERO PUSH2 0x1443 JUMPI POP PUSH1 0x0 DUP5 PUSH1 0x1 DUP4 ADD PUSH1 0x10 DUP2 LT ISZERO ISZERO PUSH2 0x143C JUMPI INVALID JUMPDEST PUSH1 0x20 MUL ADD MLOAD EQ JUMPDEST JUMPDEST DUP1 PUSH2 0x1493 JUMPI POP PUSH1 0x3 DUP2 DUP4 SUB EQ DUP1 ISZERO PUSH2 0x1471 JUMPI POP PUSH1 0x0 DUP5 PUSH1 0x1 DUP4 ADD PUSH1 0x10 DUP2 LT ISZERO ISZERO PUSH2 0x146A JUMPI INVALID JUMPDEST PUSH1 0x20 MUL ADD MLOAD EQ JUMPDEST DUP1 ISZERO PUSH2 0x1492 JUMPI POP PUSH1 0x0 DUP5 PUSH1 0x2 DUP4 ADD PUSH1 0x10 DUP2 LT ISZERO ISZERO PUSH2 0x148B JUMPI INVALID JUMPDEST PUSH1 0x20 MUL ADD MLOAD EQ JUMPDEST JUMPDEST ISZERO PUSH2 0x14F8 JUMPI DUP4 DUP2 PUSH1 0x10 DUP2 LT ISZERO ISZERO PUSH2 0x14A6 JUMPI INVALID JUMPDEST PUSH1 0x20 MUL ADD MLOAD DUP5 DUP4 PUSH1 0x10 DUP2 LT ISZERO ISZERO PUSH2 0x14B9 JUMPI INVALID JUMPDEST PUSH1 0x20 MUL ADD MLOAD ADD DUP5 DUP3 PUSH1 0x10 DUP2 LT ISZERO ISZERO PUSH2 0x14CD JUMPI INVALID JUMPDEST PUSH1 0x20 MUL ADD DUP2 DUP2 MSTORE POP POP PUSH1 0x0 DUP5 DUP4 PUSH1 0x10 DUP2 LT ISZERO ISZERO PUSH2 0x14E6 JUMPI INVALID JUMPDEST PUSH1 0x20 MUL ADD DUP2 DUP2 MSTORE POP POP PUSH1 0x0 SWAP3 POP PUSH2 0x1504 JUMP JUMPDEST JUMPDEST DUP1 PUSH1 0x1 ADD SWAP1 POP PUSH2 0x1356 JUMP JUMPDEST POP JUMPDEST DUP1 PUSH1 0x1 ADD SWAP1 POP PUSH2 0x131E JUMP JUMPDEST POP DUP2 PUSH1 0x1 PUSH1 0x0 DUP6 DUP2 MSTORE PUSH1 0x20 ADD SWAP1 DUP2 MSTORE PUSH1 0x20 ADD PUSH1 0x0 KECCAK256 PUSH1 0x2 ADD SWAP1 PUSH1 0x10 PUSH2 0x1537 SWAP3 SWAP2 SWAP1 PUSH2 0x1DD0 JUMP JUMPDEST POP PUSH1 0x1 ISZERO ISZERO PUSH2 0x1545 DUP5 PUSH2 0x52B JUMP JUMPDEST ISZERO ISZERO EQ DUP1 PUSH2 0x155F JUMPI POP PUSH1 0x1 ISZERO ISZERO PUSH2 0x155B DUP5 PUSH2 0x1C91 JUMP JUMPDEST ISZERO ISZERO EQ JUMPDEST ISZERO PUSH2 0x1597 JUMPI PUSH1 0x1 DUP1 PUSH1 0x0 DUP6 DUP2 MSTORE PUSH1 0x20 ADD SWAP1 DUP2 MSTORE PUSH1 0x20 ADD PUSH1 0x0 KECCAK256 PUSH1 0x13 ADD PUSH1 0x0 PUSH2 0x100 EXP DUP2 SLOAD DUP2 PUSH1 0xFF MUL NOT AND SWAP1 DUP4 ISZERO ISZERO MUL OR SWAP1 SSTORE POP PUSH2 0x15A8 JUMP JUMPDEST DUP1 ISZERO PUSH2 0x15A7 JUMPI PUSH2 0x15A6 DUP4 PUSH2 0x773 JUMP JUMPDEST JUMPDEST JUMPDEST PUSH32 0x1F58E70E62E08248CBCD501544F523FBEA00C427E88929DC534B197E51B9B547 PUSH1 0x1 PUSH1 0x0 DUP6 DUP2 MSTORE PUSH1 0x20 ADD SWAP1 DUP2 MSTORE PUSH1 0x20 ADD PUSH1 0x0 KECCAK256 PUSH1 0x2 ADD PUSH1 0x40 MLOAD DUP1 DUP3 PUSH1 0x10 DUP1 ISZERO PUSH2 0x1607 JUMPI PUSH1 0x20 MUL DUP3 ADD SWAP2 JUMPDEST DUP2 SLOAD DUP2 MSTORE PUSH1 0x20 ADD SWAP1 PUSH1 0x1 ADD SWAP1 DUP1 DUP4 GT PUSH2 0x15F3 JUMPI JUMPDEST POP POP SWAP2 POP POP PUSH1 0x40 MLOAD DUP1 SWAP2 SUB SWAP1 LOG1 POP POP POP JUMP JUMPDEST PUSH1 0x0 ISZERO ISZERO PUSH1 0x1 PUSH1 0x0 DUP4 DUP2 MSTORE PUSH1 0x20 ADD SWAP1 DUP2 MSTORE PUSH1 0x20 ADD PUSH1 0x0 KECCAK256 PUSH1 0x13 ADD PUSH1 0x0 SWAP1 SLOAD SWAP1 PUSH2 0x100 EXP SWAP1 DIV PUSH1 0xFF AND ISZERO ISZERO EQ ISZERO ISZERO PUSH2 0x16B8 JUMPI PUSH1 0x40 MLOAD PUSH32 0x8C379A000000000000000000000000000000000000000000000000000000000 DUP2 MSTORE PUSH1 0x4 ADD DUP1 DUP1 PUSH1 0x20 ADD DUP3 DUP2 SUB DUP3 MSTORE PUSH1 0xC DUP2 MSTORE PUSH1 0x20 ADD DUP1 PUSH32 0x47616D65206973204F7665720000000000000000000000000000000000000000 DUP2 MSTORE POP PUSH1 0x20 ADD SWAP2 POP POP PUSH1 0x40 MLOAD DUP1 SWAP2 SUB SWAP1 REVERT JUMPDEST PUSH2 0x16C0 PUSH2 0x1D80 JUMP JUMPDEST PUSH1 0x1 PUSH1 0x0 DUP4 DUP2 MSTORE PUSH1 0x20 ADD SWAP1 DUP2 MSTORE PUSH1 0x20 ADD PUSH1 0x0 KECCAK256 PUSH1 0x2 ADD PUSH1 0x10 DUP1 PUSH1 0x20 MUL PUSH1 0x40 MLOAD SWAP1 DUP2 ADD PUSH1 0x40 MSTORE DUP1 SWAP3 SWAP2 SWAP1 DUP3 PUSH1 0x10 DUP1 ISZERO PUSH2 0x170D JUMPI PUSH1 0x20 MUL DUP3 ADD SWAP2 JUMPDEST DUP2 SLOAD DUP2 MSTORE PUSH1 0x20 ADD SWAP1 PUSH1 0x1 ADD SWAP1 DUP1 DUP4 GT PUSH2 0x16F9 JUMPI JUMPDEST POP POP POP POP POP SWAP1 POP PUSH1 0x0 DUP1 SWAP1 POP PUSH1 0x0 PUSH1 0xF SWAP1 POP JUMPDEST PUSH1 0x0 DUP2 LT ISZERO DUP1 ISZERO PUSH2 0x1731 JUMPI POP PUSH1 0x10 DUP2 LT JUMPDEST ISZERO PUSH2 0x1925 JUMPI PUSH1 0x0 DUP4 DUP3 PUSH1 0x10 DUP2 LT ISZERO ISZERO PUSH2 0x1746 JUMPI INVALID JUMPDEST PUSH1 0x20 MUL ADD MLOAD GT ISZERO PUSH2 0x1919 JUMPI PUSH1 0x0 PUSH1 0x3 PUSH1 0x4 DUP4 DUP2 ISZERO ISZERO PUSH2 0x1761 JUMPI INVALID JUMPDEST MOD DUP4 SUB ADD SWAP1 POP JUMPDEST DUP2 DUP2 GT ISZERO PUSH2 0x1917 JUMPI PUSH1 0x0 DUP5 DUP3 PUSH1 0x10 DUP2 LT ISZERO ISZERO PUSH2 0x1780 JUMPI INVALID JUMPDEST PUSH1 0x20 MUL ADD MLOAD EQ ISZERO PUSH2 0x17D7 JUMPI DUP4 DUP3 PUSH1 0x10 DUP2 LT ISZERO ISZERO PUSH2 0x1799 JUMPI INVALID JUMPDEST PUSH1 0x20 MUL ADD MLOAD DUP5 DUP3 PUSH1 0x10 DUP2 LT ISZERO ISZERO PUSH2 0x17AC JUMPI INVALID JUMPDEST PUSH1 0x20 MUL ADD DUP2 DUP2 MSTORE POP POP PUSH1 0x0 DUP5 DUP4 PUSH1 0x10 DUP2 LT ISZERO ISZERO PUSH2 0x17C5 JUMPI INVALID JUMPDEST PUSH1 0x20 MUL ADD DUP2 DUP2 MSTORE POP POP PUSH1 0x0 SWAP3 POP PUSH2 0x1917 JUMP JUMPDEST DUP4 DUP3 PUSH1 0x10 DUP2 LT ISZERO ISZERO PUSH2 0x17E5 JUMPI INVALID JUMPDEST PUSH1 0x20 MUL ADD MLOAD DUP5 DUP3 PUSH1 0x10 DUP2 LT ISZERO ISZERO PUSH2 0x17F8 JUMPI INVALID JUMPDEST PUSH1 0x20 MUL ADD MLOAD EQ DUP1 ISZERO PUSH2 0x181D JUMPI POP PUSH1 0x0 DUP5 DUP4 PUSH1 0x10 DUP2 LT ISZERO ISZERO PUSH2 0x1815 JUMPI INVALID JUMPDEST PUSH1 0x20 MUL ADD MLOAD EQ ISZERO JUMPDEST ISZERO PUSH2 0x190B JUMPI PUSH1 0x1 DUP3 DUP3 SUB EQ DUP1 PUSH2 0x1856 JUMPI POP PUSH1 0x2 DUP3 DUP3 SUB EQ DUP1 ISZERO PUSH2 0x1855 JUMPI POP PUSH1 0x0 DUP5 PUSH1 0x1 DUP4 SUB PUSH1 0x10 DUP2 LT ISZERO ISZERO PUSH2 0x184E JUMPI INVALID JUMPDEST PUSH1 0x20 MUL ADD MLOAD EQ JUMPDEST JUMPDEST DUP1 PUSH2 0x18A5 JUMPI POP PUSH1 0x3 DUP3 DUP3 SUB EQ DUP1 ISZERO PUSH2 0x1883 JUMPI POP PUSH1 0x0 DUP5 PUSH1 0x1 DUP4 SUB PUSH1 0x10 DUP2 LT ISZERO ISZERO PUSH2 0x187C JUMPI INVALID JUMPDEST PUSH1 0x20 MUL ADD MLOAD EQ JUMPDEST DUP1 ISZERO PUSH2 0x18A4 JUMPI POP PUSH1 0x0 DUP5 PUSH1 0x2 DUP4 SUB PUSH1 0x10 DUP2 LT ISZERO ISZERO PUSH2 0x189D JUMPI INVALID JUMPDEST PUSH1 0x20 MUL ADD MLOAD EQ JUMPDEST JUMPDEST ISZERO PUSH2 0x190A JUMPI DUP4 DUP2 PUSH1 0x10 DUP2 LT ISZERO ISZERO PUSH2 0x18B8 JUMPI INVALID JUMPDEST PUSH1 0x20 MUL ADD MLOAD DUP5 DUP4 PUSH1 0x10 DUP2 LT ISZERO ISZERO PUSH2 0x18CB JUMPI INVALID JUMPDEST PUSH1 0x20 MUL ADD MLOAD ADD DUP5 DUP3 PUSH1 0x10 DUP2 LT ISZERO ISZERO PUSH2 0x18DF JUMPI INVALID JUMPDEST PUSH1 0x20 MUL ADD DUP2 DUP2 MSTORE POP POP PUSH1 0x0 DUP5 DUP4 PUSH1 0x10 DUP2 LT ISZERO ISZERO PUSH2 0x18F8 JUMPI INVALID JUMPDEST PUSH1 0x20 MUL ADD DUP2 DUP2 MSTORE POP POP PUSH1 0x0 SWAP3 POP PUSH2 0x1917 JUMP JUMPDEST JUMPDEST DUP1 PUSH1 0x1 SWAP1 SUB SWAP1 POP PUSH2 0x1768 JUMP JUMPDEST POP JUMPDEST DUP1 PUSH1 0x1 SWAP1 SUB SWAP1 POP PUSH2 0x1720 JUMP JUMPDEST POP DUP2 PUSH1 0x1 PUSH1 0x0 DUP6 DUP2 MSTORE PUSH1 0x20 ADD SWAP1 DUP2 MSTORE PUSH1 0x20 ADD PUSH1 0x0 KECCAK256 PUSH1 0x2 ADD SWAP1 PUSH1 0x10 PUSH2 0x194B SWAP3 SWAP2 SWAP1 PUSH2 0x1DD0 JUMP JUMPDEST POP PUSH1 0x1 ISZERO ISZERO PUSH2 0x1959 DUP5 PUSH2 0x52B JUMP JUMPDEST ISZERO ISZERO EQ DUP1 PUSH2 0x1973 JUMPI POP PUSH1 0x1 ISZERO ISZERO PUSH2 0x196F DUP5 PUSH2 0x1C91 JUMP JUMPDEST ISZERO ISZERO EQ JUMPDEST ISZERO PUSH2 0x19AB JUMPI PUSH1 0x1 DUP1 PUSH1 0x0 DUP6 DUP2 MSTORE PUSH1 0x20 ADD SWAP1 DUP2 MSTORE PUSH1 0x20 ADD PUSH1 0x0 KECCAK256 PUSH1 0x13 ADD PUSH1 0x0 PUSH2 0x100 EXP DUP2 SLOAD DUP2 PUSH1 0xFF MUL NOT AND SWAP1 DUP4 ISZERO ISZERO MUL OR SWAP1 SSTORE POP PUSH2 0x19BC JUMP JUMPDEST DUP1 ISZERO PUSH2 0x19BB JUMPI PUSH2 0x19BA DUP4 PUSH2 0x773 JUMP JUMPDEST JUMPDEST JUMPDEST PUSH32 0x1F58E70E62E08248CBCD501544F523FBEA00C427E88929DC534B197E51B9B547 PUSH1 0x1 PUSH1 0x0 DUP6 DUP2 MSTORE PUSH1 0x20 ADD SWAP1 DUP2 MSTORE PUSH1 0x20 ADD PUSH1 0x0 KECCAK256 PUSH1 0x2 ADD PUSH1 0x40 MLOAD DUP1 DUP3 PUSH1 0x10 DUP1 ISZERO PUSH2 0x1A1B JUMPI PUSH1 0x20 MUL DUP3 ADD SWAP2 JUMPDEST DUP2 SLOAD DUP2 MSTORE PUSH1 0x20 ADD SWAP1 PUSH1 0x1 ADD SWAP1 DUP1 DUP4 GT PUSH2 0x1A07 JUMPI JUMPDEST POP POP SWAP2 POP POP PUSH1 0x40 MLOAD DUP1 SWAP2 SUB SWAP1 LOG1 POP POP POP JUMP JUMPDEST PUSH1 0x0 DUP1 DUP2 SLOAD DUP1 SWAP3 SWAP2 SWAP1 PUSH1 0x1 ADD SWAP2 SWAP1 POP SSTORE POP PUSH2 0x1A46 PUSH2 0x1D80 JUMP JUMPDEST PUSH1 0x0 DUP1 SWAP1 POP JUMPDEST PUSH1 0x10 DUP2 LT ISZERO PUSH2 0x1A79 JUMPI PUSH1 0x0 DUP3 DUP3 PUSH1 0x10 DUP2 LT ISZERO ISZERO PUSH2 0x1A65 JUMPI INVALID JUMPDEST PUSH1 0x20 MUL ADD DUP2 DUP2 MSTORE POP POP DUP1 PUSH1 0x1 ADD SWAP1 POP PUSH2 0x1A4C JUMP JUMPDEST POP PUSH1 0x2 DUP2 PUSH2 0x1A87 PUSH1 0xF PUSH2 0x9DE JUMP JUMPDEST PUSH1 0x10 DUP2 LT ISZERO ISZERO PUSH2 0x1A93 JUMPI INVALID JUMPDEST PUSH1 0x20 MUL ADD DUP2 DUP2 MSTORE POP POP PUSH1 0x60 PUSH1 0xA0 PUSH1 0x40 MLOAD SWAP1 DUP2 ADD PUSH1 0x40 MSTORE DUP1 PUSH1 0x0 SLOAD DUP2 MSTORE PUSH1 0x20 ADD PUSH1 0x1 ISZERO ISZERO DUP2 MSTORE PUSH1 0x20 ADD DUP4 DUP2 MSTORE PUSH1 0x20 ADD DUP3 DUP2 MSTORE PUSH1 0x20 ADD PUSH1 0x0 ISZERO ISZERO DUP2 MSTORE POP PUSH1 0x1 PUSH1 0x0 DUP1 SLOAD DUP2 MSTORE PUSH1 0x20 ADD SWAP1 DUP2 MSTORE PUSH1 0x20 ADD PUSH1 0x0 KECCAK256 PUSH1 0x0 DUP3 ADD MLOAD DUP2 PUSH1 0x0 ADD SSTORE PUSH1 0x20 DUP3 ADD MLOAD DUP2 PUSH1 0x1 ADD PUSH1 0x0 PUSH2 0x100 EXP DUP2 SLOAD DUP2 PUSH1 0xFF MUL NOT AND SWAP1 DUP4 ISZERO ISZERO MUL OR SWAP1 SSTORE POP PUSH1 0x40 DUP3 ADD MLOAD DUP2 PUSH1 0x2 ADD SWAP1 PUSH1 0x10 PUSH2 0x1B23 SWAP3 SWAP2 SWAP1 PUSH2 0x1E10 JUMP JUMPDEST POP PUSH1 0x60 DUP3 ADD MLOAD DUP2 PUSH1 0x12 ADD SWAP1 DUP1 MLOAD SWAP1 PUSH1 0x20 ADD SWAP1 PUSH2 0x1B40 SWAP3 SWAP2 SWAP1 PUSH2 0x1E50 JUMP JUMPDEST POP PUSH1 0x80 DUP3 ADD MLOAD DUP2 PUSH1 0x13 ADD PUSH1 0x0 PUSH2 0x100 EXP DUP2 SLOAD DUP2 PUSH1 0xFF MUL NOT AND SWAP1 DUP4 ISZERO ISZERO MUL OR SWAP1 SSTORE POP SWAP1 POP POP PUSH1 0x0 DUP1 SWAP1 POP JUMPDEST PUSH1 0x10 DUP2 LT ISZERO PUSH2 0x1BEE JUMPI PUSH1 0x0 PUSH1 0x1 PUSH1 0x0 DUP1 SLOAD DUP2 MSTORE PUSH1 0x20 ADD SWAP1 DUP2 MSTORE PUSH1 0x20 ADD PUSH1 0x0 KECCAK256 PUSH1 0x2 ADD DUP3 PUSH1 0x10 DUP2 LT ISZERO ISZERO PUSH2 0x1B99 JUMPI INVALID JUMPDEST ADD SLOAD EQ ISZERO PUSH2 0x1BE3 JUMPI PUSH1 0x1 PUSH1 0x0 DUP1 SLOAD DUP2 MSTORE PUSH1 0x20 ADD SWAP1 DUP2 MSTORE PUSH1 0x20 ADD PUSH1 0x0 KECCAK256 PUSH1 0x12 ADD DUP2 SWAP1 DUP1 PUSH1 0x1 DUP2 SLOAD ADD DUP1 DUP3 SSTORE DUP1 SWAP2 POP POP SWAP1 PUSH1 0x1 DUP3 SUB SWAP1 PUSH1 0x0 MSTORE PUSH1 0x20 PUSH1 0x0 KECCAK256 ADD PUSH1 0x0 SWAP1 SWAP2 SWAP3 SWAP1 SWAP2 SWAP1 SWAP2 POP SSTORE POP JUMPDEST DUP1 PUSH1 0x1 ADD SWAP1 POP PUSH2 0x1B6A JUMP JUMPDEST POP PUSH1 0x2 PUSH1 0x1 PUSH1 0x0 DUP1 SLOAD DUP2 MSTORE PUSH1 0x20 ADD SWAP1 DUP2 MSTORE PUSH1 0x20 ADD PUSH1 0x0 KECCAK256 PUSH1 0x2 ADD PUSH1 0x1 PUSH1 0x0 DUP1 SLOAD DUP2 MSTORE PUSH1 0x20 ADD SWAP1 DUP2 MSTORE PUSH1 0x20 ADD PUSH1 0x0 KECCAK256 PUSH1 0x12 ADD PUSH1 0x1 PUSH2 0x1C2B PUSH1 0xE PUSH2 0x9DE JUMP JUMPDEST SUB DUP2 SLOAD DUP2 LT ISZERO ISZERO PUSH2 0x1C38 JUMPI INVALID JUMPDEST SWAP1 PUSH1 0x0 MSTORE PUSH1 0x20 PUSH1 0x0 KECCAK256 ADD SLOAD PUSH1 0x10 DUP2 LT ISZERO ISZERO PUSH2 0x1C4F JUMPI INVALID JUMPDEST ADD DUP2 SWAP1 SSTORE POP PUSH32 0x904CB5793A55505E1395A96A8C94A6470D36ABD9B07D4C57479FEC5679D0866 PUSH1 0x0 SLOAD PUSH1 0x40 MLOAD DUP1 DUP3 DUP2 MSTORE PUSH1 0x20 ADD SWAP2 POP POP PUSH1 0x40 MLOAD DUP1 SWAP2 SUB SWAP1 LOG1 POP POP JUMP JUMPDEST PUSH1 0x0 DUP1 PUSH1 0x0 SWAP1 POP JUMPDEST PUSH1 0x10 DUP2 LT ISZERO PUSH2 0x1CE6 JUMPI PUSH2 0x800 PUSH1 0x1 PUSH1 0x0 DUP6 DUP2 MSTORE PUSH1 0x20 ADD SWAP1 DUP2 MSTORE PUSH1 0x20 ADD PUSH1 0x0 KECCAK256 PUSH1 0x2 ADD DUP3 PUSH1 0x10 DUP2 LT ISZERO ISZERO PUSH2 0x1CC8 JUMPI INVALID JUMPDEST ADD SLOAD LT ISZERO ISZERO PUSH2 0x1CDB JUMPI PUSH1 0x1 SWAP2 POP POP PUSH2 0x1CE8 JUMP JUMPDEST DUP1 PUSH1 0x1 ADD SWAP1 POP PUSH2 0x1C99 JUMP JUMPDEST POP JUMPDEST SWAP2 SWAP1 POP JUMP JUMPDEST PUSH2 0x1CF5 PUSH2 0x1D80 JUMP JUMPDEST PUSH1 0x1 PUSH1 0x0 DUP4 DUP2 MSTORE PUSH1 0x20 ADD SWAP1 DUP2 MSTORE PUSH1 0x20 ADD PUSH1 0x0 KECCAK256 PUSH1 0x1 ADD PUSH1 0x0 SWAP1 SLOAD SWAP1 PUSH2 0x100 EXP SWAP1 DIV PUSH1 0xFF AND ISZERO PUSH2 0x1D77 JUMPI PUSH1 0x1 PUSH1 0x0 DUP4 DUP2 MSTORE PUSH1 0x20 ADD SWAP1 DUP2 MSTORE PUSH1 0x20 ADD PUSH1 0x0 KECCAK256 PUSH1 0x2 ADD PUSH1 0x10 DUP1 PUSH1 0x20 MUL PUSH1 0x40 MLOAD SWAP1 DUP2 ADD PUSH1 0x40 MSTORE DUP1 SWAP3 SWAP2 SWAP1 DUP3 PUSH1 0x10 DUP1 ISZERO PUSH2 0x1D6B JUMPI PUSH1 0x20 MUL DUP3 ADD SWAP2 JUMPDEST DUP2 SLOAD DUP2 MSTORE PUSH1 0x20 ADD SWAP1 PUSH1 0x1 ADD SWAP1 DUP1 DUP4 GT PUSH2 0x1D57 JUMPI JUMPDEST POP POP POP POP POP SWAP1 POP PUSH2 0x1D7B JUMP JUMPDEST DUP1 SWAP1 POP JUMPDEST SWAP2 SWAP1 POP JUMP JUMPDEST PUSH2 0x200 PUSH1 0x40 MLOAD SWAP1 DUP2 ADD PUSH1 0x40 MSTORE DUP1 PUSH1 0x10 SWAP1 PUSH1 0x20 DUP3 MUL DUP1 CODESIZE DUP4 CODECOPY DUP1 DUP3 ADD SWAP2 POP POP SWAP1 POP POP SWAP1 JUMP JUMPDEST DUP2 SLOAD DUP2 DUP4 SSTORE DUP2 DUP2 GT ISZERO PUSH2 0x1DCB JUMPI DUP2 DUP4 PUSH1 0x0 MSTORE PUSH1 0x20 PUSH1 0x0 KECCAK256 SWAP2 DUP3 ADD SWAP2 ADD PUSH2 0x1DCA SWAP2 SWAP1 PUSH2 0x1E9D JUMP JUMPDEST JUMPDEST POP POP POP JUMP JUMPDEST DUP3 PUSH1 0x10 DUP2 ADD SWAP3 DUP3 ISZERO PUSH2 0x1DFF JUMPI SWAP2 PUSH1 0x20 MUL DUP3 ADD JUMPDEST DUP3 DUP2 GT ISZERO PUSH2 0x1DFE JUMPI DUP3 MLOAD DUP3 SSTORE SWAP2 PUSH1 0x20 ADD SWAP2 SWAP1 PUSH1 0x1 ADD SWAP1 PUSH2 0x1DE3 JUMP JUMPDEST JUMPDEST POP SWAP1 POP PUSH2 0x1E0C SWAP2 SWAP1 PUSH2 0x1E9D JUMP JUMPDEST POP SWAP1 JUMP JUMPDEST DUP3 PUSH1 0x10 DUP2 ADD SWAP3 DUP3 ISZERO PUSH2 0x1E3F JUMPI SWAP2 PUSH1 0x20 MUL DUP3 ADD JUMPDEST DUP3 DUP2 GT ISZERO PUSH2 0x1E3E JUMPI DUP3 MLOAD DUP3 SSTORE SWAP2 PUSH1 0x20 ADD SWAP2 SWAP1 PUSH1 0x1 ADD SWAP1 PUSH2 0x1E23 JUMP JUMPDEST JUMPDEST POP SWAP1 POP PUSH2 0x1E4C SWAP2 SWAP1 PUSH2 0x1E9D JUMP JUMPDEST POP SWAP1 JUMP JUMPDEST DUP3 DUP1 SLOAD DUP3 DUP3 SSTORE SWAP1 PUSH1 0x0 MSTORE PUSH1 0x20 PUSH1 0x0 KECCAK256 SWAP1 DUP2 ADD SWAP3 DUP3 ISZERO PUSH2 0x1E8C JUMPI SWAP2 PUSH1 0x20 MUL DUP3 ADD JUMPDEST DUP3 DUP2 GT ISZERO PUSH2 0x1E8B JUMPI DUP3 MLOAD DUP3 SSTORE SWAP2 PUSH1 0x20 ADD SWAP2 SWAP1 PUSH1 0x1 ADD SWAP1 PUSH2 0x1E70 JUMP JUMPDEST JUMPDEST POP SWAP1 POP PUSH2 0x1E99 SWAP2 SWAP1 PUSH2 0x1E9D JUMP JUMPDEST POP SWAP1 JUMP JUMPDEST PUSH2 0x1EBF SWAP2 SWAP1 JUMPDEST DUP1 DUP3 GT ISZERO PUSH2 0x1EBB JUMPI PUSH1 0x0 DUP2 PUSH1 0x0 SWAP1 SSTORE POP PUSH1 0x1 ADD PUSH2 0x1EA3 JUMP JUMPDEST POP SWAP1 JUMP JUMPDEST SWAP1 JUMP INVALID LOG1 PUSH6 0x627A7A723058 KECCAK256 STOP CALLER OR PUSH22 0x133B7525F60D0D18D7791523E06D8E474C7586C161D1 OR 0x4b 0x4a 0xb2 0xd6 CALLER STOP 0x29 "
		},
		"gasEstimates": {
			"creation": {
				"codeDepositCost": "1583600",
				"executionCost": "6665",
				"totalCost": "1590265"
			},
			"external": {
				"addTile(uint256)": "infinite",
				"games(uint256)": "1126",
				"isLost(uint256)": "infinite",
				"isWon(uint256)": "infinite",
				"moveDown(uint256)": "infinite",
				"moveLeft(uint256)": "infinite",
				"moveRight(uint256)": "infinite",
				"moveUp(uint256)": "infinite",
				"random(uint256)": "472",
				"showBoard(uint256)": "infinite",
				"startGame()": "infinite",
				"updateBoard(uint256,uint256[16])": "infinite",
				"viewEmpty(uint256)": "infinite"
			}
		},
		"methodIdentifiers": {
			"addTile(uint256)": "5b7c942c",
			"games(uint256)": "117a5b90",
			"isLost(uint256)": "3e141a5a",
			"isWon(uint256)": "e9c0932f",
			"moveDown(uint256)": "c8d55e16",
			"moveLeft(uint256)": "cb14da8d",
			"moveRight(uint256)": "d544d875",
			"moveUp(uint256)": "c77a8253",
			"random(uint256)": "b863bd37",
			"showBoard(uint256)": "f25377cf",
			"startGame()": "d65ab5f2",
			"updateBoard(uint256,uint256[16])": "9122bbcf",
			"viewEmpty(uint256)": "65595c2c"
		}
	},
	"abi": [
		{
			"constant": true,
			"inputs": [
				{
					"name": "",
					"type": "uint256"
				}
			],
			"name": "games",
			"outputs": [
				{
					"name": "id",
					"type": "uint256"
				},
				{
					"name": "init",
					"type": "bool"
				},
				{
					"name": "isOver",
					"type": "bool"
				}
			],
			"payable": false,
			"stateMutability": "view",
			"type": "function"
		},
		{
			"constant": true,
			"inputs": [
				{
					"name": "gameId",
					"type": "uint256"
				}
			],
			"name": "isLost",
			"outputs": [
				{
					"name": "",
					"type": "bool"
				}
			],
			"payable": false,
			"stateMutability": "view",
			"type": "function"
		},
		{
			"constant": false,
			"inputs": [
				{
					"name": "gameId",
					"type": "uint256"
				}
			],
			"name": "addTile",
			"outputs": [],
			"payable": false,
			"stateMutability": "nonpayable",
			"type": "function"
		},
		{
			"constant": true,
			"inputs": [
				{
					"name": "gameId",
					"type": "uint256"
				}
			],
			"name": "viewEmpty",
			"outputs": [
				{
					"name": "",
					"type": "uint256[]"
				}
			],
			"payable": false,
			"stateMutability": "view",
			"type": "function"
		},
		{
			"constant": false,
			"inputs": [
				{
					"name": "gameId",
					"type": "uint256"
				},
				{
					"name": "newBoard",
					"type": "uint256[16]"
				}
			],
			"name": "updateBoard",
			"outputs": [],
			"payable": false,
			"stateMutability": "nonpayable",
			"type": "function"
		},
		{
			"constant": true,
			"inputs": [
				{
					"name": "modulus",
					"type": "uint256"
				}
			],
			"name": "random",
			"outputs": [
				{
					"name": "",
					"type": "uint256"
				}
			],
			"payable": false,
			"stateMutability": "view",
			"type": "function"
		},
		{
			"constant": false,
			"inputs": [
				{
					"name": "gameId",
					"type": "uint256"
				}
			],
			"name": "moveUp",
			"outputs": [],
			"payable": false,
			"stateMutability": "nonpayable",
			"type": "function"
		},
		{
			"constant": false,
			"inputs": [
				{
					"name": "gameId",
					"type": "uint256"
				}
			],
			"name": "moveDown",
			"outputs": [],
			"payable": false,
			"stateMutability": "nonpayable",
			"type": "function"
		},
		{
			"constant": false,
			"inputs": [
				{
					"name": "gameId",
					"type": "uint256"
				}
			],
			"name": "moveLeft",
			"outputs": [],
			"payable": false,
			"stateMutability": "nonpayable",
			"type": "function"
		},
		{
			"constant": false,
			"inputs": [
				{
					"name": "gameId",
					"type": "uint256"
				}
			],
			"name": "moveRight",
			"outputs": [],
			"payable": false,
			"stateMutability": "nonpayable",
			"type": "function"
		},
		{
			"constant": false,
			"inputs": [],
			"name": "startGame",
			"outputs": [],
			"payable": false,
			"stateMutability": "nonpayable",
			"type": "function"
		},
		{
			"constant": true,
			"inputs": [
				{
					"name": "gameId",
					"type": "uint256"
				}
			],
			"name": "isWon",
			"outputs": [
				{
					"name": "",
					"type": "bool"
				}
			],
			"payable": false,
			"stateMutability": "view",
			"type": "function"
		},
		{
			"constant": true,
			"inputs": [
				{
					"name": "gameNumber",
					"type": "uint256"
				}
			],
			"name": "showBoard",
			"outputs": [
				{
					"name": "currentBoard",
					"type": "uint256[16]"
				}
			],
			"payable": false,
			"stateMutability": "view",
			"type": "function"
		},
		{
			"anonymous": false,
			"inputs": [
				{
					"indexed": false,
					"name": "gameId",
					"type": "uint256"
				}
			],
			"name": "gameStarted",
			"type": "event"
		},
		{
			"anonymous": false,
			"inputs": [
				{
					"indexed": false,
					"name": "boardView",
					"type": "uint256[16]"
				}
			],
			"name": "NewBoardView",
			"type": "event"
		},
		{
			"anonymous": false,
			"inputs": [
				{
					"indexed": false,
					"name": "gameId",
					"type": "uint256"
				}
			],
			"name": "gameLost",
			"type": "event"
		},
		{
			"anonymous": false,
			"inputs": [
				{
					"indexed": false,
					"name": "gameId",
					"type": "uint256"
				}
			],
			"name": "gameWon",
			"type": "event"
		}
	]
}